{
	"data": {
		"bytecode": {
			"linkReferences": {},
			"object": "60806040523480156200001157600080fd5b506040516200357438038062003574833981016040819052620000349162000375565b8080620000486301ffc9a760e01b62000158565b6200005381620001b6565b62000065636cdb3d1360e11b62000158565b620000776303a24d0760e21b62000158565b506006805460ff1916905562000098600062000092620001cf565b620001d3565b620000c77f9f2df0fed2c77648de5860a4cc508cd0818c85b8b8a1ab4ceeef8d981c8956a662000092620001cf565b620000f67f65d7a28e3265b37a6474929f336521b332c1681b933f6cb9f3376673440d862a62000092620001cf565b50600062000103620001cf565b600880546001600160a01b0319166001600160a01b038316908117909155604051919250906000907f8be0079c531659141344cd1fd0a4f28419497f9722a3daafe3b4186f6b6457e0908290a3505062000481565b6001600160e01b031980821614156200018e5760405162461bcd60e51b8152600401620001859062000417565b60405180910390fd5b6001600160e01b0319166000908152600160208190526040909120805460ff19169091179055565b8051620001cb906005906020840190620002d9565b5050565b3390565b620001cb8282600082815260208181526040909120620001fe9183906200118d62000252821b17901c565b15620001cb576200020e620001cf565b6001600160a01b0316816001600160a01b0316837f2f8788117e7eff1d82e926ec794901d17c78024a50270940304540a733656f0d60405160405180910390a45050565b600062000269836001600160a01b03841662000272565b90505b92915050565b6000620002808383620002c1565b620002b8575081546001818101845560008481526020808220909301849055845484825282860190935260409020919091556200026c565b5060006200026c565b60009081526001919091016020526040902054151590565b828054600181600116156101000203166002900490600052602060002090601f016020900481019282601f106200031c57805160ff19168380011785556200034c565b828001600101855582156200034c579182015b828111156200034c5782518255916020019190600101906200032f565b506200035a9291506200035e565b5090565b5b808211156200035a57600081556001016200035f565b60006020828403121562000387578081fd5b81516001600160401b03808211156200039e578283fd5b818401915084601f830112620003b2578283fd5b815181811115620003c1578384fd5b604051601f8201601f191681016020018381118282101715620003e2578586fd5b604052818152838201602001871015620003fa578485fd5b6200040d8260208301602087016200044e565b9695505050505050565b6020808252601c908201527f4552433136353a20696e76616c696420696e7465726661636520696400000000604082015260600190565b60005b838110156200046b57818101518382015260200162000451565b838111156200047b576000848401525b50505050565b6130e380620004916000396000f3fe608060405234801561001057600080fd5b50600436106101d95760003560e01c80638da5cb5b11610104578063ca15c873116100a2578063e985e9c511610071578063e985e9c5146103c0578063f242432a146103d3578063f2fde38b146103e6578063f5298aca146103f9576101d9565b8063ca15c8731461038a578063d53913931461039d578063d547741f146103a5578063e63ab1e9146103b8576101d9565b8063a217fddf116100de578063a217fddf14610349578063a22cb46514610351578063b9571e8414610364578063c87b56dd14610377576101d9565b80638da5cb5b1461030e5780639010d07c1461032357806391d1485414610336576101d9565b80633f4ba83a1161017c5780636b20c4541161014b5780636b20c454146102d8578063715018a6146102eb578063785cc997146102f35780638456cb5914610306576101d9565b80633f4ba83a146102955780634e1273f41461029d57806355f804b3146102bd5780635c975abb146102d0576101d9565b8063248a9ca3116101b8578063248a9ca3146102475780632eb2c2d61461025a5780632f2ff15d1461026f57806336568abe14610282576101d9565b8062fdd58e146101de57806301ffc9a7146102075780630e89341c14610227575b600080fd5b6101f16101ec366004612352565b61040c565b6040516101fe9190612788565b60405180910390f35b61021a6102153660046124cd565b610468565b6040516101fe919061277d565b61023a610235366004612470565b61048b565b6040516101fe9190612791565b6101f1610255366004612470565b610523565b61026d61026836600461209b565b610538565b005b61026d61027d366004612488565b610757565b61026d610290366004612488565b61079f565b61026d6107e1565b6102b06102ab3660046123af565b610833565b6040516101fe919061273c565b61026d6102cb366004612505565b610972565b61021a6109b3565b61026d6102e63660046121a8565b6109bd565b61026d610a17565b61026d61030136600461253f565b610a96565b61026d610afe565b610316610b4e565b6040516101fe9190612685565b6103166103313660046124ac565b610b5d565b61021a610344366004612488565b610b7c565b6101f1610b94565b61026d61035f366004612317565b610b99565b61026d61037236600461221a565b610c67565b61023a610385366004612470565b610cc3565b6101f1610398366004612470565b610e26565b6101f1610e3d565b61026d6103b3366004612488565b610e61565b6101f1610e9b565b61021a6103ce366004612067565b610ebf565b61026d6103e1366004612144565b610eed565b61026d6103f436600461204c565b611081565b61026d61040736600461237c565b611138565b60006001600160a01b03831661043d5760405162461bcd60e51b8152600401610434906128ff565b60405180910390fd5b5060008181526003602090815260408083206001600160a01b03861684529091529020545b92915050565b6001600160e01b0319811660009081526001602052604090205460ff165b919050565b60058054604080516020601f60026000196101006001881615020190951694909404938401819004810282018101909252828152606093909290918301828280156105175780601f106104ec57610100808354040283529160200191610517565b820191906000526020600020905b8154815290600101906020018083116104fa57829003601f168201915b50505050509050919050565b60009081526020819052604090206002015490565b81518351146105595760405162461bcd60e51b815260040161043490612e2f565b6001600160a01b03841661057f5760405162461bcd60e51b815260040161043490612b27565b6105876111a2565b6001600160a01b0316856001600160a01b031614806105ad57506105ad856103ce6111a2565b6105c95760405162461bcd60e51b815260040161043490612b6c565b60006105d36111a2565b90506105e38187878787876111a6565b60005b84518110156106e95760008582815181106105fd57fe5b60200260200101519050600085838151811061061557fe5b60200260200101519050610682816040518060600160405280602a8152602001613084602a91396003600086815260200190815260200160002060008d6001600160a01b03166001600160a01b03168152602001908152602001600020546111b49092919063ffffffff16565b60008381526003602090815260408083206001600160a01b038e811685529252808320939093558a16815220546106b990826111e0565b60009283526003602090815260408085206001600160a01b038c16865290915290922091909155506001016105e6565b50846001600160a01b0316866001600160a01b0316826001600160a01b03167f4a39dc06d4c0dbc64b70af90fd698a233a518aa5d07e595d983b8c0526c8f7fb878760405161073992919061274f565b60405180910390a461074f818787878787611205565b505050505050565b600082815260208190526040902060020154610775906103446111a2565b6107915760405162461bcd60e51b815260040161043490612882565b61079b828261131c565b5050565b6107a76111a2565b6001600160a01b0316816001600160a01b0316146107d75760405162461bcd60e51b815260040161043490612eb8565b61079b8282611385565b61080d7f65d7a28e3265b37a6474929f336521b332c1681b933f6cb9f3376673440d862a6103446111a2565b6108295760405162461bcd60e51b815260040161043490612ce3565b6108316113ee565b565b606081518351146108565760405162461bcd60e51b815260040161043490612de6565b606083516001600160401b038111801561086f57600080fd5b50604051908082528060200260200182016040528015610899578160200160208202803683370190505b50905060005b845181101561096a5760006001600160a01b03168582815181106108bf57fe5b60200260200101516001600160a01b031614156108ee5760405162461bcd60e51b81526004016104349061294a565b600360008583815181106108fe57fe5b60200260200101518152602001908152602001600020600086838151811061092257fe5b60200260200101516001600160a01b03166001600160a01b031681526020019081526020016000205482828151811061095757fe5b602090810291909101015260010161089f565b509392505050565b61097a6111a2565b6008546001600160a01b039081169116146109a75760405162461bcd60e51b815260040161043490612c5e565b6109b08161145a565b50565b60065460ff165b90565b6109c56111a2565b6001600160a01b0316836001600160a01b031614806109eb57506109eb836103ce6111a2565b610a075760405162461bcd60e51b815260040161043490612a64565b610a1283838361146d565b505050565b610a1f6111a2565b6008546001600160a01b03908116911614610a4c5760405162461bcd60e51b815260040161043490612c5e565b6008546040516000916001600160a01b0316907f8be0079c531659141344cd1fd0a4f28419497f9722a3daafe3b4186f6b6457e0908390a3600880546001600160a01b0319169055565b610ac27f9f2df0fed2c77648de5860a4cc508cd0818c85b8b8a1ab4ceeef8d981c8956a66103446111a2565b610ade5760405162461bcd60e51b815260040161043490612c01565b610af433610aec600761161b565b85858561161f565b610a126007611716565b610b2a7f65d7a28e3265b37a6474929f336521b332c1681b933f6cb9f3376673440d862a6103446111a2565b610b465760405162461bcd60e51b815260040161043490612d40565b61083161171f565b6008546001600160a01b031690565b6000828152602081905260408120610b759083611778565b9392505050565b6000828152602081905260408120610b759083611784565b600081565b816001600160a01b0316610bab6111a2565b6001600160a01b03161415610bd25760405162461bcd60e51b815260040161043490612d9d565b8060046000610bdf6111a2565b6001600160a01b03908116825260208083019390935260409182016000908120918716808252919093529120805460ff191692151592909217909155610c236111a2565b6001600160a01b03167f17307eab39ab6107e8899845ad3d59bd9653f200f220920489ca2b5937696c3183604051610c5b919061277d565b60405180910390a35050565b610c937f9f2df0fed2c77648de5860a4cc508cd0818c85b8b8a1ab4ceeef8d981c8956a66103446111a2565b610caf5760405162461bcd60e51b815260040161043490612c01565b610cbc8585858585611799565b5050505050565b6000818152600260208190526040909120546060916000196101006001841615020190911604610d055760405162461bcd60e51b815260040161043490612c93565b600082815260026020818152604092839020805484516001821615610100026000190190911693909304601f81018390048302840183019094528383526060939091830182828015610d985780601f10610d6d57610100808354040283529160200191610d98565b820191906000526020600020905b815481529060010190602001808311610d7b57829003601f168201915b505060055493945050505060026000196101006001841615020190911604610dc1579050610486565b805115610df357600581604051602001610ddc929190612604565b604051602081830303815290604052915050610486565b6005610dfe84611963565b604051602001610e0f929190612604565b604051602081830303815290604052915050919050565b600081815260208190526040812061046290611a3d565b7f9f2df0fed2c77648de5860a4cc508cd0818c85b8b8a1ab4ceeef8d981c8956a681565b600082815260208190526040902060020154610e7f906103446111a2565b6107d75760405162461bcd60e51b815260040161043490612aad565b7f65d7a28e3265b37a6474929f336521b332c1681b933f6cb9f3376673440d862a81565b6001600160a01b03918216600090815260046020908152604080832093909416825291909152205460ff1690565b6001600160a01b038416610f135760405162461bcd60e51b815260040161043490612b27565b610f1b6111a2565b6001600160a01b0316856001600160a01b03161480610f415750610f41856103ce6111a2565b610f5d5760405162461bcd60e51b815260040161043490612a64565b6000610f676111a2565b9050610f87818787610f7888611a48565b610f8188611a48565b876111a6565b610fce836040518060600160405280602a8152602001613084602a913960008781526003602090815260408083206001600160a01b038d16845290915290205491906111b4565b60008581526003602090815260408083206001600160a01b038b8116855292528083209390935587168152205461100590846111e0565b60008581526003602090815260408083206001600160a01b03808b168086529190935292819020939093559151909188811691908416907fc3d58168c5ae7397731d063d5bbf3d657854427343f4c083240f7aacaa2d0f629061106b9089908990612f07565b60405180910390a461074f818787878787611a8c565b6110896111a2565b6008546001600160a01b039081169116146110b65760405162461bcd60e51b815260040161043490612c5e565b6001600160a01b0381166110dc5760405162461bcd60e51b81526004016104349061299b565b6008546040516001600160a01b038084169216907f8be0079c531659141344cd1fd0a4f28419497f9722a3daafe3b4186f6b6457e090600090a3600880546001600160a01b0319166001600160a01b0392909216919091179055565b6111406111a2565b6001600160a01b0316836001600160a01b031614806111665750611166836103ce6111a2565b6111825760405162461bcd60e51b815260040161043490612a64565b610a12838383611b5d565b6000610b75836001600160a01b038416611cb2565b3390565b61074f868686868686611cfc565b600081848411156111d85760405162461bcd60e51b81526004016104349190612791565b505050900390565b600082820183811015610b755760405162461bcd60e51b8152600401610434906129e1565b611217846001600160a01b0316611d2f565b1561074f5760405163bc197c8160e01b81526001600160a01b0385169063bc197c81906112509089908990889088908890600401612699565b602060405180830381600087803b15801561126a57600080fd5b505af192505050801561129a575060408051601f3d908101601f19168201909252611297918101906124e9565b60015b6112e3576112a6612f90565b806112b157506112cb565b8060405162461bcd60e51b81526004016104349190612791565b60405162461bcd60e51b8152600401610434906127a4565b6001600160e01b0319811663bc197c8160e01b146113135760405162461bcd60e51b81526004016104349061283a565b50505050505050565b6000828152602081905260409020611334908261118d565b1561079b576113416111a2565b6001600160a01b0316816001600160a01b0316837f2f8788117e7eff1d82e926ec794901d17c78024a50270940304540a733656f0d60405160405180910390a45050565b600082815260208190526040902061139d9082611d35565b1561079b576113aa6111a2565b6001600160a01b0316816001600160a01b0316837ff6391f5c32d9c69d2a47ea670b442974b53935d1edc7fd64eb21e047a839171b60405160405180910390a45050565b60065460ff166114105760405162461bcd60e51b8152600401610434906128d1565b6006805460ff191690557f5db9ee0a495bf2e6ff9c91a7834c1ba4fdd244a5e8aa4e537bd38aeae4b073aa6114436111a2565b6040516114509190612685565b60405180910390a1565b805161079b906005906020840190611e8c565b6001600160a01b0383166114935760405162461bcd60e51b815260040161043490612bbe565b80518251146114b45760405162461bcd60e51b815260040161043490612e2f565b60006114be6111a2565b90506114de818560008686604051806020016040528060008152506111a6565b60005b83518110156115bc576115738382815181106114f957fe5b6020026020010151604051806060016040528060248152602001613060602491396003600088868151811061152a57fe5b602002602001015181526020019081526020016000206000896001600160a01b03166001600160a01b03168152602001908152602001600020546111b49092919063ffffffff16565b6003600086848151811061158357fe5b602090810291909101810151825281810192909252604090810160009081206001600160a01b038a1682529092529020556001016114e1565b5060006001600160a01b0316846001600160a01b0316826001600160a01b03167f4a39dc06d4c0dbc64b70af90fd698a233a518aa5d07e595d983b8c0526c8f7fb868660405161160d92919061274f565b60405180910390a450505050565b5490565b6001600160a01b0385166116455760405162461bcd60e51b815260040161043490612e77565b600061164f6111a2565b905061166a8160008861166189611a48565b610f8189611a48565b60008581526003602090815260408083206001600160a01b038a16845290915290205461169790856111e0565b60008681526003602090815260408083206001600160a01b03808c16808652919093528184209490945551908416907fc3d58168c5ae7397731d063d5bbf3d657854427343f4c083240f7aacaa2d0f62906116f5908a908a90612f07565b60405180910390a46117078584611d4a565b61074f81600088888887611a8c565b80546001019055565b60065460ff16156117425760405162461bcd60e51b815260040161043490612afd565b6006805460ff191660011790557f62e78cea01bee320cd4e420270b5ea74000d11b0c9f74754ebdbfc544b05a2586114436111a2565b6000610b758383611d69565b6000610b75836001600160a01b038416611dae565b6001600160a01b0385166117bf5760405162461bcd60e51b815260040161043490612e77565b82518451146117e05760405162461bcd60e51b815260040161043490612e2f565b60006117ea6111a2565b90506117fb816000888888876111a6565b60005b85518110156118fb576118766003600088848151811061181a57fe5b602002602001015181526020019081526020016000206000896001600160a01b03166001600160a01b031681526020019081526020016000205486838151811061186057fe5b60200260200101516111e090919063ffffffff16565b6003600088848151811061188657fe5b602002602001015181526020019081526020016000206000896001600160a01b03166001600160a01b03168152602001908152602001600020819055506118f38682815181106118d257fe5b60200260200101518583815181106118e657fe5b6020026020010151611d4a565b6001016117fe565b50856001600160a01b031660006001600160a01b0316826001600160a01b03167f4a39dc06d4c0dbc64b70af90fd698a233a518aa5d07e595d983b8c0526c8f7fb888860405161194c92919061274f565b60405180910390a461074f81600088888887611205565b60608161198857506040805180820190915260018152600360fc1b6020820152610486565b8160005b81156119a057600101600a8204915061198c565b6060816001600160401b03811180156119b857600080fd5b506040519080825280601f01601f1916602001820160405280156119e3576020820181803683370190505b50859350905060001982015b8315611a3457600a840660300160f81b82828060019003935081518110611a1257fe5b60200101906001600160f81b031916908160001a905350600a840493506119ef565b50949350505050565b60006104628261161b565b604080516001808252818301909252606091829190602080830190803683370190505090508281600081518110611a7b57fe5b602090810291909101015292915050565b611a9e846001600160a01b0316611d2f565b1561074f5760405163f23a6e6160e01b81526001600160a01b0385169063f23a6e6190611ad790899089908890889088906004016126f7565b602060405180830381600087803b158015611af157600080fd5b505af1925050508015611b21575060408051601f3d908101601f19168201909252611b1e918101906124e9565b60015b611b2d576112a6612f90565b6001600160e01b0319811663f23a6e6160e01b146113135760405162461bcd60e51b81526004016104349061283a565b6001600160a01b038316611b835760405162461bcd60e51b815260040161043490612bbe565b6000611b8d6111a2565b9050611bbd81856000611b9f87611a48565b611ba887611a48565b604051806020016040528060008152506111a6565b611c04826040518060600160405280602481526020016130606024913960008681526003602090815260408083206001600160a01b038b16845290915290205491906111b4565b60008481526003602090815260408083206001600160a01b03891684528252808320939093558582526002908190529190205460001961010060018316150201160415611c62576000838152600260205260408120611c6291611f0a565b60006001600160a01b0316846001600160a01b0316826001600160a01b03167fc3d58168c5ae7397731d063d5bbf3d657854427343f4c083240f7aacaa2d0f62868660405161160d929190612f07565b6000611cbe8383611dae565b611cf457508154600181810184556000848152602080822090930184905584548482528286019093526040902091909155610462565b506000610462565b611d0a86868686868661074f565b611d126109b3565b1561074f5760405162461bcd60e51b815260040161043490612a18565b3b151590565b6000610b75836001600160a01b038416611dc6565b60008281526002602090815260409091208251610a1292840190611e8c565b81546000908210611d8c5760405162461bcd60e51b8152600401610434906127f8565b826000018281548110611d9b57fe5b9060005260206000200154905092915050565b60009081526001919091016020526040902054151590565b60008181526001830160205260408120548015611e825783546000198083019190810190600090879083908110611df957fe5b9060005260206000200154905080876000018481548110611e1657fe5b600091825260208083209091019290925582815260018981019092526040902090840190558654879080611e4657fe5b60019003818190600052602060002001600090559055866001016000878152602001908152602001600020600090556001945050505050610462565b6000915050610462565b828054600181600116156101000203166002900490600052602060002090601f016020900481019282601f10611ecd57805160ff1916838001178555611efa565b82800160010185558215611efa579182015b82811115611efa578251825591602001919060010190611edf565b50611f06929150611f4a565b5090565b50805460018160011615610100020316600290046000825580601f10611f3057506109b0565b601f0160209004906000526020600020908101906109b091905b5b80821115611f065760008155600101611f4b565b80356001600160a01b038116811461046257600080fd5b600082601f830112611f86578081fd5b8135611f99611f9482612f3b565b612f15565b818152915060208083019084810181840286018201871015611fba57600080fd5b60005b84811015611fd957813584529282019290820190600101611fbd565b505050505092915050565b600082601f830112611ff4578081fd5b81356001600160401b03811115612009578182fd5b61201c601f8201601f1916602001612f15565b915080825283602082850101111561203357600080fd5b8060208401602084013760009082016020015292915050565b60006020828403121561205d578081fd5b610b758383611f5f565b60008060408385031215612079578081fd5b6120838484611f5f565b91506120928460208501611f5f565b90509250929050565b600080600080600060a086880312156120b2578081fd5b85356120bd81613034565b945060208601356120cd81613034565b935060408601356001600160401b03808211156120e8578283fd5b6120f489838a01611f76565b94506060880135915080821115612109578283fd5b61211589838a01611f76565b9350608088013591508082111561212a578283fd5b5061213788828901611fe4565b9150509295509295909350565b600080600080600060a0868803121561215b578081fd5b6121658787611f5f565b94506121748760208801611f5f565b9350604086013592506060860135915060808601356001600160401b0381111561219c578182fd5b61213788828901611fe4565b6000806000606084860312156121bc578283fd5b83356121c781613034565b925060208401356001600160401b03808211156121e2578384fd5b6121ee87838801611f76565b93506040860135915080821115612203578283fd5b5061221086828701611f76565b9150509250925092565b600080600080600060a08688031215612231578081fd5b61223b8787611f5f565b94506020808701356001600160401b0380821115612257578384fd5b6122638a838b01611f76565b96506040890135915080821115612278578384fd5b6122848a838b01611f76565b95506060890135915080821115612299578384fd5b818901915089601f8301126122ac578384fd5b81356122ba611f9482612f3b565b81815284810190848601875b848110156122ef576122dd8f8984358a0101611fe4565b845292870192908701906001016122c6565b509097505050506080890135925080831115612309578384fd5b505061213788828901611fe4565b60008060408385031215612329578182fd5b6123338484611f5f565b915060208301358015158114612347578182fd5b809150509250929050565b60008060408385031215612364578182fd5b61236e8484611f5f565b946020939093013593505050565b600080600060608486031215612390578081fd5b61239a8585611f5f565b95602085013595506040909401359392505050565b600080604083850312156123c1578182fd5b82356001600160401b03808211156123d7578384fd5b818501915085601f8301126123ea578384fd5b81356123f8611f9482612f3b565b80828252602080830192508086018a828387028901011115612418578889fd5b8896505b848710156124425761242e8b82611f5f565b84526001969096019592810192810161241c565b509096508701359350505080821115612459578283fd5b5061246685828601611f76565b9150509250929050565b600060208284031215612481578081fd5b5035919050565b6000806040838503121561249a578182fd5b82359150602083013561234781613034565b600080604083850312156124be578182fd5b50508035926020909101359150565b6000602082840312156124de578081fd5b8135610b7581613049565b6000602082840312156124fa578081fd5b8151610b7581613049565b600060208284031215612516578081fd5b81356001600160401b0381111561252b578182fd5b61253784828501611fe4565b949350505050565b600080600060608486031215612553578081fd5b8335925060208401356001600160401b0380821115612570578283fd5b61257c87838801611fe4565b93506040860135915080821115612591578283fd5b5061221086828701611fe4565b6000815180845260208085019450808401835b838110156125cd578151875295820195908201906001016125b1565b509495945050505050565b600081518084526125f0816020860160208601612f5a565b601f01601f19169290920160200192915050565b6000808454600180821660008114612623576001811461263a57612669565b60ff198316865260028304607f1686019350612669565b600283048886526020808720875b838110156126615781548a820152908501908201612648565b505050860193505b505050835161267c818360208801612f5a565b01949350505050565b6001600160a01b0391909116815260200190565b6001600160a01b0386811682528516602082015260a0604082018190526000906126c59083018661259e565b82810360608401526126d7818661259e565b905082810360808401526126eb81856125d8565b98975050505050505050565b6001600160a01b03868116825285166020820152604081018490526060810183905260a060808201819052600090612731908301846125d8565b979650505050505050565b600060208252610b75602083018461259e565b600060408252612762604083018561259e565b8281036020840152612774818561259e565b95945050505050565b901515815260200190565b90815260200190565b600060208252610b7560208301846125d8565b60208082526034908201527f455243313135353a207472616e7366657220746f206e6f6e20455243313135356040820152732932b1b2b4bb32b91034b6b83632b6b2b73a32b960611b606082015260800190565b60208082526022908201527f456e756d657261626c655365743a20696e646578206f7574206f6620626f756e604082015261647360f01b606082015260800190565b60208082526028908201527f455243313135353a204552433131353552656365697665722072656a656374656040820152676420746f6b656e7360c01b606082015260800190565b6020808252602f908201527f416363657373436f6e74726f6c3a2073656e646572206d75737420626520616e60408201526e0818591b5a5b881d1bc819dc985b9d608a1b606082015260800190565b60208082526014908201527314185d5cd8589b194e881b9bdd081c185d5cd95960621b604082015260600190565b6020808252602b908201527f455243313135353a2062616c616e636520717565727920666f7220746865207a60408201526a65726f206164647265737360a81b606082015260800190565b60208082526031908201527f455243313135353a2062617463682062616c616e636520717565727920666f7260408201527020746865207a65726f206164647265737360781b606082015260800190565b60208082526026908201527f4f776e61626c653a206e6577206f776e657220697320746865207a65726f206160408201526564647265737360d01b606082015260800190565b6020808252601b908201527f536166654d6174683a206164646974696f6e206f766572666c6f770000000000604082015260600190565b6020808252602c908201527f455243313135355061757361626c653a20746f6b656e207472616e736665722060408201526b1dda1a5b19481c185d5cd95960a21b606082015260800190565b60208082526029908201527f455243313135353a2063616c6c6572206973206e6f74206f776e6572206e6f7260408201526808185c1c1c9bdd995960ba1b606082015260800190565b60208082526030908201527f416363657373436f6e74726f6c3a2073656e646572206d75737420626520616e60408201526f2061646d696e20746f207265766f6b6560801b606082015260800190565b60208082526010908201526f14185d5cd8589b194e881c185d5cd95960821b604082015260600190565b60208082526025908201527f455243313135353a207472616e7366657220746f20746865207a65726f206164604082015264647265737360d81b606082015260800190565b60208082526032908201527f455243313135353a207472616e736665722063616c6c6572206973206e6f74206040820152711bdddb995c881b9bdc88185c1c1c9bdd995960721b606082015260800190565b60208082526023908201527f455243313135353a206275726e2066726f6d20746865207a65726f206164647260408201526265737360e81b606082015260800190565b60208082526038908201527f455243313135355072657365744d696e7465725061757365723a206d7573742060408201527f68617665206d696e74657220726f6c6520746f206d696e740000000000000000606082015260800190565b6020808252818101527f4f776e61626c653a2063616c6c6572206973206e6f7420746865206f776e6572604082015260600190565b60208082526030908201527f455243313135354d657461646174613a2055524920717565727920666f72206e60408201526f37b732bc34b9ba32b73a103a37b5b2b760811b606082015260800190565b6020808252603b908201527f455243313135355072657365744d696e7465725061757365723a206d7573742060408201527f686176652070617573657220726f6c6520746f20756e70617573650000000000606082015260800190565b60208082526039908201527f455243313135355072657365744d696e7465725061757365723a206d7573742060408201527f686176652070617573657220726f6c6520746f20706175736500000000000000606082015260800190565b60208082526029908201527f455243313135353a2073657474696e6720617070726f76616c20737461747573604082015268103337b91039b2b63360b91b606082015260800190565b60208082526029908201527f455243313135353a206163636f756e747320616e6420696473206c656e677468604082015268040dad2e6dac2e8c6d60bb1b606082015260800190565b60208082526028908201527f455243313135353a2069647320616e6420616d6f756e7473206c656e677468206040820152670dad2e6dac2e8c6d60c31b606082015260800190565b60208082526021908201527f455243313135353a206d696e7420746f20746865207a65726f206164647265736040820152607360f81b606082015260800190565b6020808252602f908201527f416363657373436f6e74726f6c3a2063616e206f6e6c792072656e6f756e636560408201526e103937b632b9903337b91039b2b63360891b606082015260800190565b918252602082015260400190565b6040518181016001600160401b0381118282101715612f3357600080fd5b604052919050565b60006001600160401b03821115612f50578081fd5b5060209081020190565b60005b83811015612f75578181015183820152602001612f5d565b83811115612f84576000848401525b50505050565b60e01c90565b600060443d1015612fa0576109ba565b600481823e6308c379a0612fb48251612f8a565b14612fbe576109ba565b6040513d600319016004823e80513d6001600160401b038160248401118184111715612fed57505050506109ba565b8284019250825191508082111561300757505050506109ba565b503d8301602082840101111561301f575050506109ba565b601f01601f1916810160200160405291505090565b6001600160a01b03811681146109b057600080fd5b6001600160e01b0319811681146109b057600080fdfe455243313135353a206275726e20616d6f756e7420657863656564732062616c616e6365455243313135353a20696e73756666696369656e742062616c616e636520666f72207472616e73666572a2646970667358221220e44dfe5d865795210b1ee56e1ddbf3a6b03351fb10aefd8084ccd42f18a1852964736f6c634300060c0033",
			"opcodes": "PUSH1 0x80 PUSH1 0x40 MSTORE CALLVALUE DUP1 ISZERO PUSH3 0x11 JUMPI PUSH1 0x0 DUP1 REVERT JUMPDEST POP PUSH1 0x40 MLOAD PUSH3 0x3574 CODESIZE SUB DUP1 PUSH3 0x3574 DUP4 CODECOPY DUP2 ADD PUSH1 0x40 DUP2 SWAP1 MSTORE PUSH3 0x34 SWAP2 PUSH3 0x375 JUMP JUMPDEST DUP1 DUP1 PUSH3 0x48 PUSH4 0x1FFC9A7 PUSH1 0xE0 SHL PUSH3 0x158 JUMP JUMPDEST PUSH3 0x53 DUP2 PUSH3 0x1B6 JUMP JUMPDEST PUSH3 0x65 PUSH4 0x6CDB3D13 PUSH1 0xE1 SHL PUSH3 0x158 JUMP JUMPDEST PUSH3 0x77 PUSH4 0x3A24D07 PUSH1 0xE2 SHL PUSH3 0x158 JUMP JUMPDEST POP PUSH1 0x6 DUP1 SLOAD PUSH1 0xFF NOT AND SWAP1 SSTORE PUSH3 0x98 PUSH1 0x0 PUSH3 0x92 PUSH3 0x1CF JUMP JUMPDEST PUSH3 0x1D3 JUMP JUMPDEST PUSH3 0xC7 PUSH32 0x9F2DF0FED2C77648DE5860A4CC508CD0818C85B8B8A1AB4CEEEF8D981C8956A6 PUSH3 0x92 PUSH3 0x1CF JUMP JUMPDEST PUSH3 0xF6 PUSH32 0x65D7A28E3265B37A6474929F336521B332C1681B933F6CB9F3376673440D862A PUSH3 0x92 PUSH3 0x1CF JUMP JUMPDEST POP PUSH1 0x0 PUSH3 0x103 PUSH3 0x1CF JUMP JUMPDEST PUSH1 0x8 DUP1 SLOAD PUSH1 0x1 PUSH1 0x1 PUSH1 0xA0 SHL SUB NOT AND PUSH1 0x1 PUSH1 0x1 PUSH1 0xA0 SHL SUB DUP4 AND SWAP1 DUP2 OR SWAP1 SWAP2 SSTORE PUSH1 0x40 MLOAD SWAP2 SWAP3 POP SWAP1 PUSH1 0x0 SWAP1 PUSH32 0x8BE0079C531659141344CD1FD0A4F28419497F9722A3DAAFE3B4186F6B6457E0 SWAP1 DUP3 SWAP1 LOG3 POP POP PUSH3 0x481 JUMP JUMPDEST PUSH1 0x1 PUSH1 0x1 PUSH1 0xE0 SHL SUB NOT DUP1 DUP3 AND EQ ISZERO PUSH3 0x18E JUMPI PUSH1 0x40 MLOAD PUSH3 0x461BCD PUSH1 0xE5 SHL DUP2 MSTORE PUSH1 0x4 ADD PUSH3 0x185 SWAP1 PUSH3 0x417 JUMP JUMPDEST PUSH1 0x40 MLOAD DUP1 SWAP2 SUB SWAP1 REVERT JUMPDEST PUSH1 0x1 PUSH1 0x1 PUSH1 0xE0 SHL SUB NOT AND PUSH1 0x0 SWAP1 DUP2 MSTORE PUSH1 0x1 PUSH1 0x20 DUP2 SWAP1 MSTORE PUSH1 0x40 SWAP1 SWAP2 KECCAK256 DUP1 SLOAD PUSH1 0xFF NOT AND SWAP1 SWAP2 OR SWAP1 SSTORE JUMP JUMPDEST DUP1 MLOAD PUSH3 0x1CB SWAP1 PUSH1 0x5 SWAP1 PUSH1 0x20 DUP5 ADD SWAP1 PUSH3 0x2D9 JUMP JUMPDEST POP POP JUMP JUMPDEST CALLER SWAP1 JUMP JUMPDEST PUSH3 0x1CB DUP3 DUP3 PUSH1 0x0 DUP3 DUP2 MSTORE PUSH1 0x20 DUP2 DUP2 MSTORE PUSH1 0x40 SWAP1 SWAP2 KECCAK256 PUSH3 0x1FE SWAP2 DUP4 SWAP1 PUSH3 0x118D PUSH3 0x252 DUP3 SHL OR SWAP1 SHR JUMP JUMPDEST ISZERO PUSH3 0x1CB JUMPI PUSH3 0x20E PUSH3 0x1CF JUMP JUMPDEST PUSH1 0x1 PUSH1 0x1 PUSH1 0xA0 SHL SUB AND DUP2 PUSH1 0x1 PUSH1 0x1 PUSH1 0xA0 SHL SUB AND DUP4 PUSH32 0x2F8788117E7EFF1D82E926EC794901D17C78024A50270940304540A733656F0D PUSH1 0x40 MLOAD PUSH1 0x40 MLOAD DUP1 SWAP2 SUB SWAP1 LOG4 POP POP JUMP JUMPDEST PUSH1 0x0 PUSH3 0x269 DUP4 PUSH1 0x1 PUSH1 0x1 PUSH1 0xA0 SHL SUB DUP5 AND PUSH3 0x272 JUMP JUMPDEST SWAP1 POP JUMPDEST SWAP3 SWAP2 POP POP JUMP JUMPDEST PUSH1 0x0 PUSH3 0x280 DUP4 DUP4 PUSH3 0x2C1 JUMP JUMPDEST PUSH3 0x2B8 JUMPI POP DUP2 SLOAD PUSH1 0x1 DUP2 DUP2 ADD DUP5 SSTORE PUSH1 0x0 DUP5 DUP2 MSTORE PUSH1 0x20 DUP1 DUP3 KECCAK256 SWAP1 SWAP4 ADD DUP5 SWAP1 SSTORE DUP5 SLOAD DUP5 DUP3 MSTORE DUP3 DUP7 ADD SWAP1 SWAP4 MSTORE PUSH1 0x40 SWAP1 KECCAK256 SWAP2 SWAP1 SWAP2 SSTORE PUSH3 0x26C JUMP JUMPDEST POP PUSH1 0x0 PUSH3 0x26C JUMP JUMPDEST PUSH1 0x0 SWAP1 DUP2 MSTORE PUSH1 0x1 SWAP2 SWAP1 SWAP2 ADD PUSH1 0x20 MSTORE PUSH1 0x40 SWAP1 KECCAK256 SLOAD ISZERO ISZERO SWAP1 JUMP JUMPDEST DUP3 DUP1 SLOAD PUSH1 0x1 DUP2 PUSH1 0x1 AND ISZERO PUSH2 0x100 MUL SUB AND PUSH1 0x2 SWAP1 DIV SWAP1 PUSH1 0x0 MSTORE PUSH1 0x20 PUSH1 0x0 KECCAK256 SWAP1 PUSH1 0x1F ADD PUSH1 0x20 SWAP1 DIV DUP2 ADD SWAP3 DUP3 PUSH1 0x1F LT PUSH3 0x31C JUMPI DUP1 MLOAD PUSH1 0xFF NOT AND DUP4 DUP1 ADD OR DUP6 SSTORE PUSH3 0x34C JUMP JUMPDEST DUP3 DUP1 ADD PUSH1 0x1 ADD DUP6 SSTORE DUP3 ISZERO PUSH3 0x34C JUMPI SWAP2 DUP3 ADD JUMPDEST DUP3 DUP2 GT ISZERO PUSH3 0x34C JUMPI DUP3 MLOAD DUP3 SSTORE SWAP2 PUSH1 0x20 ADD SWAP2 SWAP1 PUSH1 0x1 ADD SWAP1 PUSH3 0x32F JUMP JUMPDEST POP PUSH3 0x35A SWAP3 SWAP2 POP PUSH3 0x35E JUMP JUMPDEST POP SWAP1 JUMP JUMPDEST JUMPDEST DUP1 DUP3 GT ISZERO PUSH3 0x35A JUMPI PUSH1 0x0 DUP2 SSTORE PUSH1 0x1 ADD PUSH3 0x35F JUMP JUMPDEST PUSH1 0x0 PUSH1 0x20 DUP3 DUP5 SUB SLT ISZERO PUSH3 0x387 JUMPI DUP1 DUP2 REVERT JUMPDEST DUP2 MLOAD PUSH1 0x1 PUSH1 0x1 PUSH1 0x40 SHL SUB DUP1 DUP3 GT ISZERO PUSH3 0x39E JUMPI DUP3 DUP4 REVERT JUMPDEST DUP2 DUP5 ADD SWAP2 POP DUP5 PUSH1 0x1F DUP4 ADD SLT PUSH3 0x3B2 JUMPI DUP3 DUP4 REVERT JUMPDEST DUP2 MLOAD DUP2 DUP2 GT ISZERO PUSH3 0x3C1 JUMPI DUP4 DUP5 REVERT JUMPDEST PUSH1 0x40 MLOAD PUSH1 0x1F DUP3 ADD PUSH1 0x1F NOT AND DUP2 ADD PUSH1 0x20 ADD DUP4 DUP2 GT DUP3 DUP3 LT OR ISZERO PUSH3 0x3E2 JUMPI DUP6 DUP7 REVERT JUMPDEST PUSH1 0x40 MSTORE DUP2 DUP2 MSTORE DUP4 DUP3 ADD PUSH1 0x20 ADD DUP8 LT ISZERO PUSH3 0x3FA JUMPI DUP5 DUP6 REVERT JUMPDEST PUSH3 0x40D DUP3 PUSH1 0x20 DUP4 ADD PUSH1 0x20 DUP8 ADD PUSH3 0x44E JUMP JUMPDEST SWAP7 SWAP6 POP POP POP POP POP POP JUMP JUMPDEST PUSH1 0x20 DUP1 DUP3 MSTORE PUSH1 0x1C SWAP1 DUP3 ADD MSTORE PUSH32 0x4552433136353A20696E76616C696420696E7465726661636520696400000000 PUSH1 0x40 DUP3 ADD MSTORE PUSH1 0x60 ADD SWAP1 JUMP JUMPDEST PUSH1 0x0 JUMPDEST DUP4 DUP2 LT ISZERO PUSH3 0x46B JUMPI DUP2 DUP2 ADD MLOAD DUP4 DUP3 ADD MSTORE PUSH1 0x20 ADD PUSH3 0x451 JUMP JUMPDEST DUP4 DUP2 GT ISZERO PUSH3 0x47B JUMPI PUSH1 0x0 DUP5 DUP5 ADD MSTORE JUMPDEST POP POP POP POP JUMP JUMPDEST PUSH2 0x30E3 DUP1 PUSH3 0x491 PUSH1 0x0 CODECOPY PUSH1 0x0 RETURN INVALID PUSH1 0x80 PUSH1 0x40 MSTORE CALLVALUE DUP1 ISZERO PUSH2 0x10 JUMPI PUSH1 0x0 DUP1 REVERT JUMPDEST POP PUSH1 0x4 CALLDATASIZE LT PUSH2 0x1D9 JUMPI PUSH1 0x0 CALLDATALOAD PUSH1 0xE0 SHR DUP1 PUSH4 0x8DA5CB5B GT PUSH2 0x104 JUMPI DUP1 PUSH4 0xCA15C873 GT PUSH2 0xA2 JUMPI DUP1 PUSH4 0xE985E9C5 GT PUSH2 0x71 JUMPI DUP1 PUSH4 0xE985E9C5 EQ PUSH2 0x3C0 JUMPI DUP1 PUSH4 0xF242432A EQ PUSH2 0x3D3 JUMPI DUP1 PUSH4 0xF2FDE38B EQ PUSH2 0x3E6 JUMPI DUP1 PUSH4 0xF5298ACA EQ PUSH2 0x3F9 JUMPI PUSH2 0x1D9 JUMP JUMPDEST DUP1 PUSH4 0xCA15C873 EQ PUSH2 0x38A JUMPI DUP1 PUSH4 0xD5391393 EQ PUSH2 0x39D JUMPI DUP1 PUSH4 0xD547741F EQ PUSH2 0x3A5 JUMPI DUP1 PUSH4 0xE63AB1E9 EQ PUSH2 0x3B8 JUMPI PUSH2 0x1D9 JUMP JUMPDEST DUP1 PUSH4 0xA217FDDF GT PUSH2 0xDE JUMPI DUP1 PUSH4 0xA217FDDF EQ PUSH2 0x349 JUMPI DUP1 PUSH4 0xA22CB465 EQ PUSH2 0x351 JUMPI DUP1 PUSH4 0xB9571E84 EQ PUSH2 0x364 JUMPI DUP1 PUSH4 0xC87B56DD EQ PUSH2 0x377 JUMPI PUSH2 0x1D9 JUMP JUMPDEST DUP1 PUSH4 0x8DA5CB5B EQ PUSH2 0x30E JUMPI DUP1 PUSH4 0x9010D07C EQ PUSH2 0x323 JUMPI DUP1 PUSH4 0x91D14854 EQ PUSH2 0x336 JUMPI PUSH2 0x1D9 JUMP JUMPDEST DUP1 PUSH4 0x3F4BA83A GT PUSH2 0x17C JUMPI DUP1 PUSH4 0x6B20C454 GT PUSH2 0x14B JUMPI DUP1 PUSH4 0x6B20C454 EQ PUSH2 0x2D8 JUMPI DUP1 PUSH4 0x715018A6 EQ PUSH2 0x2EB JUMPI DUP1 PUSH4 0x785CC997 EQ PUSH2 0x2F3 JUMPI DUP1 PUSH4 0x8456CB59 EQ PUSH2 0x306 JUMPI PUSH2 0x1D9 JUMP JUMPDEST DUP1 PUSH4 0x3F4BA83A EQ PUSH2 0x295 JUMPI DUP1 PUSH4 0x4E1273F4 EQ PUSH2 0x29D JUMPI DUP1 PUSH4 0x55F804B3 EQ PUSH2 0x2BD JUMPI DUP1 PUSH4 0x5C975ABB EQ PUSH2 0x2D0 JUMPI PUSH2 0x1D9 JUMP JUMPDEST DUP1 PUSH4 0x248A9CA3 GT PUSH2 0x1B8 JUMPI DUP1 PUSH4 0x248A9CA3 EQ PUSH2 0x247 JUMPI DUP1 PUSH4 0x2EB2C2D6 EQ PUSH2 0x25A JUMPI DUP1 PUSH4 0x2F2FF15D EQ PUSH2 0x26F JUMPI DUP1 PUSH4 0x36568ABE EQ PUSH2 0x282 JUMPI PUSH2 0x1D9 JUMP JUMPDEST DUP1 PUSH3 0xFDD58E EQ PUSH2 0x1DE JUMPI DUP1 PUSH4 0x1FFC9A7 EQ PUSH2 0x207 JUMPI DUP1 PUSH4 0xE89341C EQ PUSH2 0x227 JUMPI JUMPDEST PUSH1 0x0 DUP1 REVERT JUMPDEST PUSH2 0x1F1 PUSH2 0x1EC CALLDATASIZE PUSH1 0x4 PUSH2 0x2352 JUMP JUMPDEST PUSH2 0x40C JUMP JUMPDEST PUSH1 0x40 MLOAD PUSH2 0x1FE SWAP2 SWAP1 PUSH2 0x2788 JUMP JUMPDEST PUSH1 0x40 MLOAD DUP1 SWAP2 SUB SWAP1 RETURN JUMPDEST PUSH2 0x21A PUSH2 0x215 CALLDATASIZE PUSH1 0x4 PUSH2 0x24CD JUMP JUMPDEST PUSH2 0x468 JUMP JUMPDEST PUSH1 0x40 MLOAD PUSH2 0x1FE SWAP2 SWAP1 PUSH2 0x277D JUMP JUMPDEST PUSH2 0x23A PUSH2 0x235 CALLDATASIZE PUSH1 0x4 PUSH2 0x2470 JUMP JUMPDEST PUSH2 0x48B JUMP JUMPDEST PUSH1 0x40 MLOAD PUSH2 0x1FE SWAP2 SWAP1 PUSH2 0x2791 JUMP JUMPDEST PUSH2 0x1F1 PUSH2 0x255 CALLDATASIZE PUSH1 0x4 PUSH2 0x2470 JUMP JUMPDEST PUSH2 0x523 JUMP JUMPDEST PUSH2 0x26D PUSH2 0x268 CALLDATASIZE PUSH1 0x4 PUSH2 0x209B JUMP JUMPDEST PUSH2 0x538 JUMP JUMPDEST STOP JUMPDEST PUSH2 0x26D PUSH2 0x27D CALLDATASIZE PUSH1 0x4 PUSH2 0x2488 JUMP JUMPDEST PUSH2 0x757 JUMP JUMPDEST PUSH2 0x26D PUSH2 0x290 CALLDATASIZE PUSH1 0x4 PUSH2 0x2488 JUMP JUMPDEST PUSH2 0x79F JUMP JUMPDEST PUSH2 0x26D PUSH2 0x7E1 JUMP JUMPDEST PUSH2 0x2B0 PUSH2 0x2AB CALLDATASIZE PUSH1 0x4 PUSH2 0x23AF JUMP JUMPDEST PUSH2 0x833 JUMP JUMPDEST PUSH1 0x40 MLOAD PUSH2 0x1FE SWAP2 SWAP1 PUSH2 0x273C JUMP JUMPDEST PUSH2 0x26D PUSH2 0x2CB CALLDATASIZE PUSH1 0x4 PUSH2 0x2505 JUMP JUMPDEST PUSH2 0x972 JUMP JUMPDEST PUSH2 0x21A PUSH2 0x9B3 JUMP JUMPDEST PUSH2 0x26D PUSH2 0x2E6 CALLDATASIZE PUSH1 0x4 PUSH2 0x21A8 JUMP JUMPDEST PUSH2 0x9BD JUMP JUMPDEST PUSH2 0x26D PUSH2 0xA17 JUMP JUMPDEST PUSH2 0x26D PUSH2 0x301 CALLDATASIZE PUSH1 0x4 PUSH2 0x253F JUMP JUMPDEST PUSH2 0xA96 JUMP JUMPDEST PUSH2 0x26D PUSH2 0xAFE JUMP JUMPDEST PUSH2 0x316 PUSH2 0xB4E JUMP JUMPDEST PUSH1 0x40 MLOAD PUSH2 0x1FE SWAP2 SWAP1 PUSH2 0x2685 JUMP JUMPDEST PUSH2 0x316 PUSH2 0x331 CALLDATASIZE PUSH1 0x4 PUSH2 0x24AC JUMP JUMPDEST PUSH2 0xB5D JUMP JUMPDEST PUSH2 0x21A PUSH2 0x344 CALLDATASIZE PUSH1 0x4 PUSH2 0x2488 JUMP JUMPDEST PUSH2 0xB7C JUMP JUMPDEST PUSH2 0x1F1 PUSH2 0xB94 JUMP JUMPDEST PUSH2 0x26D PUSH2 0x35F CALLDATASIZE PUSH1 0x4 PUSH2 0x2317 JUMP JUMPDEST PUSH2 0xB99 JUMP JUMPDEST PUSH2 0x26D PUSH2 0x372 CALLDATASIZE PUSH1 0x4 PUSH2 0x221A JUMP JUMPDEST PUSH2 0xC67 JUMP JUMPDEST PUSH2 0x23A PUSH2 0x385 CALLDATASIZE PUSH1 0x4 PUSH2 0x2470 JUMP JUMPDEST PUSH2 0xCC3 JUMP JUMPDEST PUSH2 0x1F1 PUSH2 0x398 CALLDATASIZE PUSH1 0x4 PUSH2 0x2470 JUMP JUMPDEST PUSH2 0xE26 JUMP JUMPDEST PUSH2 0x1F1 PUSH2 0xE3D JUMP JUMPDEST PUSH2 0x26D PUSH2 0x3B3 CALLDATASIZE PUSH1 0x4 PUSH2 0x2488 JUMP JUMPDEST PUSH2 0xE61 JUMP JUMPDEST PUSH2 0x1F1 PUSH2 0xE9B JUMP JUMPDEST PUSH2 0x21A PUSH2 0x3CE CALLDATASIZE PUSH1 0x4 PUSH2 0x2067 JUMP JUMPDEST PUSH2 0xEBF JUMP JUMPDEST PUSH2 0x26D PUSH2 0x3E1 CALLDATASIZE PUSH1 0x4 PUSH2 0x2144 JUMP JUMPDEST PUSH2 0xEED JUMP JUMPDEST PUSH2 0x26D PUSH2 0x3F4 CALLDATASIZE PUSH1 0x4 PUSH2 0x204C JUMP JUMPDEST PUSH2 0x1081 JUMP JUMPDEST PUSH2 0x26D PUSH2 0x407 CALLDATASIZE PUSH1 0x4 PUSH2 0x237C JUMP JUMPDEST PUSH2 0x1138 JUMP JUMPDEST PUSH1 0x0 PUSH1 0x1 PUSH1 0x1 PUSH1 0xA0 SHL SUB DUP4 AND PUSH2 0x43D JUMPI PUSH1 0x40 MLOAD PUSH3 0x461BCD PUSH1 0xE5 SHL DUP2 MSTORE PUSH1 0x4 ADD PUSH2 0x434 SWAP1 PUSH2 0x28FF JUMP JUMPDEST PUSH1 0x40 MLOAD DUP1 SWAP2 SUB SWAP1 REVERT JUMPDEST POP PUSH1 0x0 DUP2 DUP2 MSTORE PUSH1 0x3 PUSH1 0x20 SWAP1 DUP2 MSTORE PUSH1 0x40 DUP1 DUP4 KECCAK256 PUSH1 0x1 PUSH1 0x1 PUSH1 0xA0 SHL SUB DUP7 AND DUP5 MSTORE SWAP1 SWAP2 MSTORE SWAP1 KECCAK256 SLOAD JUMPDEST SWAP3 SWAP2 POP POP JUMP JUMPDEST PUSH1 0x1 PUSH1 0x1 PUSH1 0xE0 SHL SUB NOT DUP2 AND PUSH1 0x0 SWAP1 DUP2 MSTORE PUSH1 0x1 PUSH1 0x20 MSTORE PUSH1 0x40 SWAP1 KECCAK256 SLOAD PUSH1 0xFF AND JUMPDEST SWAP2 SWAP1 POP JUMP JUMPDEST PUSH1 0x5 DUP1 SLOAD PUSH1 0x40 DUP1 MLOAD PUSH1 0x20 PUSH1 0x1F PUSH1 0x2 PUSH1 0x0 NOT PUSH2 0x100 PUSH1 0x1 DUP9 AND ISZERO MUL ADD SWAP1 SWAP6 AND SWAP5 SWAP1 SWAP5 DIV SWAP4 DUP5 ADD DUP2 SWAP1 DIV DUP2 MUL DUP3 ADD DUP2 ADD SWAP1 SWAP3 MSTORE DUP3 DUP2 MSTORE PUSH1 0x60 SWAP4 SWAP1 SWAP3 SWAP1 SWAP2 DUP4 ADD DUP3 DUP3 DUP1 ISZERO PUSH2 0x517 JUMPI DUP1 PUSH1 0x1F LT PUSH2 0x4EC JUMPI PUSH2 0x100 DUP1 DUP4 SLOAD DIV MUL DUP4 MSTORE SWAP2 PUSH1 0x20 ADD SWAP2 PUSH2 0x517 JUMP JUMPDEST DUP3 ADD SWAP2 SWAP1 PUSH1 0x0 MSTORE PUSH1 0x20 PUSH1 0x0 KECCAK256 SWAP1 JUMPDEST DUP2 SLOAD DUP2 MSTORE SWAP1 PUSH1 0x1 ADD SWAP1 PUSH1 0x20 ADD DUP1 DUP4 GT PUSH2 0x4FA JUMPI DUP3 SWAP1 SUB PUSH1 0x1F AND DUP3 ADD SWAP2 JUMPDEST POP POP POP POP POP SWAP1 POP SWAP2 SWAP1 POP JUMP JUMPDEST PUSH1 0x0 SWAP1 DUP2 MSTORE PUSH1 0x20 DUP2 SWAP1 MSTORE PUSH1 0x40 SWAP1 KECCAK256 PUSH1 0x2 ADD SLOAD SWAP1 JUMP JUMPDEST DUP2 MLOAD DUP4 MLOAD EQ PUSH2 0x559 JUMPI PUSH1 0x40 MLOAD PUSH3 0x461BCD PUSH1 0xE5 SHL DUP2 MSTORE PUSH1 0x4 ADD PUSH2 0x434 SWAP1 PUSH2 0x2E2F JUMP JUMPDEST PUSH1 0x1 PUSH1 0x1 PUSH1 0xA0 SHL SUB DUP5 AND PUSH2 0x57F JUMPI PUSH1 0x40 MLOAD PUSH3 0x461BCD PUSH1 0xE5 SHL DUP2 MSTORE PUSH1 0x4 ADD PUSH2 0x434 SWAP1 PUSH2 0x2B27 JUMP JUMPDEST PUSH2 0x587 PUSH2 0x11A2 JUMP JUMPDEST PUSH1 0x1 PUSH1 0x1 PUSH1 0xA0 SHL SUB AND DUP6 PUSH1 0x1 PUSH1 0x1 PUSH1 0xA0 SHL SUB AND EQ DUP1 PUSH2 0x5AD JUMPI POP PUSH2 0x5AD DUP6 PUSH2 0x3CE PUSH2 0x11A2 JUMP JUMPDEST PUSH2 0x5C9 JUMPI PUSH1 0x40 MLOAD PUSH3 0x461BCD PUSH1 0xE5 SHL DUP2 MSTORE PUSH1 0x4 ADD PUSH2 0x434 SWAP1 PUSH2 0x2B6C JUMP JUMPDEST PUSH1 0x0 PUSH2 0x5D3 PUSH2 0x11A2 JUMP JUMPDEST SWAP1 POP PUSH2 0x5E3 DUP2 DUP8 DUP8 DUP8 DUP8 DUP8 PUSH2 0x11A6 JUMP JUMPDEST PUSH1 0x0 JUMPDEST DUP5 MLOAD DUP2 LT ISZERO PUSH2 0x6E9 JUMPI PUSH1 0x0 DUP6 DUP3 DUP2 MLOAD DUP2 LT PUSH2 0x5FD JUMPI INVALID JUMPDEST PUSH1 0x20 MUL PUSH1 0x20 ADD ADD MLOAD SWAP1 POP PUSH1 0x0 DUP6 DUP4 DUP2 MLOAD DUP2 LT PUSH2 0x615 JUMPI INVALID JUMPDEST PUSH1 0x20 MUL PUSH1 0x20 ADD ADD MLOAD SWAP1 POP PUSH2 0x682 DUP2 PUSH1 0x40 MLOAD DUP1 PUSH1 0x60 ADD PUSH1 0x40 MSTORE DUP1 PUSH1 0x2A DUP2 MSTORE PUSH1 0x20 ADD PUSH2 0x3084 PUSH1 0x2A SWAP2 CODECOPY PUSH1 0x3 PUSH1 0x0 DUP7 DUP2 MSTORE PUSH1 0x20 ADD SWAP1 DUP2 MSTORE PUSH1 0x20 ADD PUSH1 0x0 KECCAK256 PUSH1 0x0 DUP14 PUSH1 0x1 PUSH1 0x1 PUSH1 0xA0 SHL SUB AND PUSH1 0x1 PUSH1 0x1 PUSH1 0xA0 SHL SUB AND DUP2 MSTORE PUSH1 0x20 ADD SWAP1 DUP2 MSTORE PUSH1 0x20 ADD PUSH1 0x0 KECCAK256 SLOAD PUSH2 0x11B4 SWAP1 SWAP3 SWAP2 SWAP1 PUSH4 0xFFFFFFFF AND JUMP JUMPDEST PUSH1 0x0 DUP4 DUP2 MSTORE PUSH1 0x3 PUSH1 0x20 SWAP1 DUP2 MSTORE PUSH1 0x40 DUP1 DUP4 KECCAK256 PUSH1 0x1 PUSH1 0x1 PUSH1 0xA0 SHL SUB DUP15 DUP2 AND DUP6 MSTORE SWAP3 MSTORE DUP1 DUP4 KECCAK256 SWAP4 SWAP1 SWAP4 SSTORE DUP11 AND DUP2 MSTORE KECCAK256 SLOAD PUSH2 0x6B9 SWAP1 DUP3 PUSH2 0x11E0 JUMP JUMPDEST PUSH1 0x0 SWAP3 DUP4 MSTORE PUSH1 0x3 PUSH1 0x20 SWAP1 DUP2 MSTORE PUSH1 0x40 DUP1 DUP6 KECCAK256 PUSH1 0x1 PUSH1 0x1 PUSH1 0xA0 SHL SUB DUP13 AND DUP7 MSTORE SWAP1 SWAP2 MSTORE SWAP1 SWAP3 KECCAK256 SWAP2 SWAP1 SWAP2 SSTORE POP PUSH1 0x1 ADD PUSH2 0x5E6 JUMP JUMPDEST POP DUP5 PUSH1 0x1 PUSH1 0x1 PUSH1 0xA0 SHL SUB AND DUP7 PUSH1 0x1 PUSH1 0x1 PUSH1 0xA0 SHL SUB AND DUP3 PUSH1 0x1 PUSH1 0x1 PUSH1 0xA0 SHL SUB AND PUSH32 0x4A39DC06D4C0DBC64B70AF90FD698A233A518AA5D07E595D983B8C0526C8F7FB DUP8 DUP8 PUSH1 0x40 MLOAD PUSH2 0x739 SWAP3 SWAP2 SWAP1 PUSH2 0x274F JUMP JUMPDEST PUSH1 0x40 MLOAD DUP1 SWAP2 SUB SWAP1 LOG4 PUSH2 0x74F DUP2 DUP8 DUP8 DUP8 DUP8 DUP8 PUSH2 0x1205 JUMP JUMPDEST POP POP POP POP POP POP JUMP JUMPDEST PUSH1 0x0 DUP3 DUP2 MSTORE PUSH1 0x20 DUP2 SWAP1 MSTORE PUSH1 0x40 SWAP1 KECCAK256 PUSH1 0x2 ADD SLOAD PUSH2 0x775 SWAP1 PUSH2 0x344 PUSH2 0x11A2 JUMP JUMPDEST PUSH2 0x791 JUMPI PUSH1 0x40 MLOAD PUSH3 0x461BCD PUSH1 0xE5 SHL DUP2 MSTORE PUSH1 0x4 ADD PUSH2 0x434 SWAP1 PUSH2 0x2882 JUMP JUMPDEST PUSH2 0x79B DUP3 DUP3 PUSH2 0x131C JUMP JUMPDEST POP POP JUMP JUMPDEST PUSH2 0x7A7 PUSH2 0x11A2 JUMP JUMPDEST PUSH1 0x1 PUSH1 0x1 PUSH1 0xA0 SHL SUB AND DUP2 PUSH1 0x1 PUSH1 0x1 PUSH1 0xA0 SHL SUB AND EQ PUSH2 0x7D7 JUMPI PUSH1 0x40 MLOAD PUSH3 0x461BCD PUSH1 0xE5 SHL DUP2 MSTORE PUSH1 0x4 ADD PUSH2 0x434 SWAP1 PUSH2 0x2EB8 JUMP JUMPDEST PUSH2 0x79B DUP3 DUP3 PUSH2 0x1385 JUMP JUMPDEST PUSH2 0x80D PUSH32 0x65D7A28E3265B37A6474929F336521B332C1681B933F6CB9F3376673440D862A PUSH2 0x344 PUSH2 0x11A2 JUMP JUMPDEST PUSH2 0x829 JUMPI PUSH1 0x40 MLOAD PUSH3 0x461BCD PUSH1 0xE5 SHL DUP2 MSTORE PUSH1 0x4 ADD PUSH2 0x434 SWAP1 PUSH2 0x2CE3 JUMP JUMPDEST PUSH2 0x831 PUSH2 0x13EE JUMP JUMPDEST JUMP JUMPDEST PUSH1 0x60 DUP2 MLOAD DUP4 MLOAD EQ PUSH2 0x856 JUMPI PUSH1 0x40 MLOAD PUSH3 0x461BCD PUSH1 0xE5 SHL DUP2 MSTORE PUSH1 0x4 ADD PUSH2 0x434 SWAP1 PUSH2 0x2DE6 JUMP JUMPDEST PUSH1 0x60 DUP4 MLOAD PUSH1 0x1 PUSH1 0x1 PUSH1 0x40 SHL SUB DUP2 GT DUP1 ISZERO PUSH2 0x86F JUMPI PUSH1 0x0 DUP1 REVERT JUMPDEST POP PUSH1 0x40 MLOAD SWAP1 DUP1 DUP3 MSTORE DUP1 PUSH1 0x20 MUL PUSH1 0x20 ADD DUP3 ADD PUSH1 0x40 MSTORE DUP1 ISZERO PUSH2 0x899 JUMPI DUP2 PUSH1 0x20 ADD PUSH1 0x20 DUP3 MUL DUP1 CALLDATASIZE DUP4 CALLDATACOPY ADD SWAP1 POP JUMPDEST POP SWAP1 POP PUSH1 0x0 JUMPDEST DUP5 MLOAD DUP2 LT ISZERO PUSH2 0x96A JUMPI PUSH1 0x0 PUSH1 0x1 PUSH1 0x1 PUSH1 0xA0 SHL SUB AND DUP6 DUP3 DUP2 MLOAD DUP2 LT PUSH2 0x8BF JUMPI INVALID JUMPDEST PUSH1 0x20 MUL PUSH1 0x20 ADD ADD MLOAD PUSH1 0x1 PUSH1 0x1 PUSH1 0xA0 SHL SUB AND EQ ISZERO PUSH2 0x8EE JUMPI PUSH1 0x40 MLOAD PUSH3 0x461BCD PUSH1 0xE5 SHL DUP2 MSTORE PUSH1 0x4 ADD PUSH2 0x434 SWAP1 PUSH2 0x294A JUMP JUMPDEST PUSH1 0x3 PUSH1 0x0 DUP6 DUP4 DUP2 MLOAD DUP2 LT PUSH2 0x8FE JUMPI INVALID JUMPDEST PUSH1 0x20 MUL PUSH1 0x20 ADD ADD MLOAD DUP2 MSTORE PUSH1 0x20 ADD SWAP1 DUP2 MSTORE PUSH1 0x20 ADD PUSH1 0x0 KECCAK256 PUSH1 0x0 DUP7 DUP4 DUP2 MLOAD DUP2 LT PUSH2 0x922 JUMPI INVALID JUMPDEST PUSH1 0x20 MUL PUSH1 0x20 ADD ADD MLOAD PUSH1 0x1 PUSH1 0x1 PUSH1 0xA0 SHL SUB AND PUSH1 0x1 PUSH1 0x1 PUSH1 0xA0 SHL SUB AND DUP2 MSTORE PUSH1 0x20 ADD SWAP1 DUP2 MSTORE PUSH1 0x20 ADD PUSH1 0x0 KECCAK256 SLOAD DUP3 DUP3 DUP2 MLOAD DUP2 LT PUSH2 0x957 JUMPI INVALID JUMPDEST PUSH1 0x20 SWAP1 DUP2 MUL SWAP2 SWAP1 SWAP2 ADD ADD MSTORE PUSH1 0x1 ADD PUSH2 0x89F JUMP JUMPDEST POP SWAP4 SWAP3 POP POP POP JUMP JUMPDEST PUSH2 0x97A PUSH2 0x11A2 JUMP JUMPDEST PUSH1 0x8 SLOAD PUSH1 0x1 PUSH1 0x1 PUSH1 0xA0 SHL SUB SWAP1 DUP2 AND SWAP2 AND EQ PUSH2 0x9A7 JUMPI PUSH1 0x40 MLOAD PUSH3 0x461BCD PUSH1 0xE5 SHL DUP2 MSTORE PUSH1 0x4 ADD PUSH2 0x434 SWAP1 PUSH2 0x2C5E JUMP JUMPDEST PUSH2 0x9B0 DUP2 PUSH2 0x145A JUMP JUMPDEST POP JUMP JUMPDEST PUSH1 0x6 SLOAD PUSH1 0xFF AND JUMPDEST SWAP1 JUMP JUMPDEST PUSH2 0x9C5 PUSH2 0x11A2 JUMP JUMPDEST PUSH1 0x1 PUSH1 0x1 PUSH1 0xA0 SHL SUB AND DUP4 PUSH1 0x1 PUSH1 0x1 PUSH1 0xA0 SHL SUB AND EQ DUP1 PUSH2 0x9EB JUMPI POP PUSH2 0x9EB DUP4 PUSH2 0x3CE PUSH2 0x11A2 JUMP JUMPDEST PUSH2 0xA07 JUMPI PUSH1 0x40 MLOAD PUSH3 0x461BCD PUSH1 0xE5 SHL DUP2 MSTORE PUSH1 0x4 ADD PUSH2 0x434 SWAP1 PUSH2 0x2A64 JUMP JUMPDEST PUSH2 0xA12 DUP4 DUP4 DUP4 PUSH2 0x146D JUMP JUMPDEST POP POP POP JUMP JUMPDEST PUSH2 0xA1F PUSH2 0x11A2 JUMP JUMPDEST PUSH1 0x8 SLOAD PUSH1 0x1 PUSH1 0x1 PUSH1 0xA0 SHL SUB SWAP1 DUP2 AND SWAP2 AND EQ PUSH2 0xA4C JUMPI PUSH1 0x40 MLOAD PUSH3 0x461BCD PUSH1 0xE5 SHL DUP2 MSTORE PUSH1 0x4 ADD PUSH2 0x434 SWAP1 PUSH2 0x2C5E JUMP JUMPDEST PUSH1 0x8 SLOAD PUSH1 0x40 MLOAD PUSH1 0x0 SWAP2 PUSH1 0x1 PUSH1 0x1 PUSH1 0xA0 SHL SUB AND SWAP1 PUSH32 0x8BE0079C531659141344CD1FD0A4F28419497F9722A3DAAFE3B4186F6B6457E0 SWAP1 DUP4 SWAP1 LOG3 PUSH1 0x8 DUP1 SLOAD PUSH1 0x1 PUSH1 0x1 PUSH1 0xA0 SHL SUB NOT AND SWAP1 SSTORE JUMP JUMPDEST PUSH2 0xAC2 PUSH32 0x9F2DF0FED2C77648DE5860A4CC508CD0818C85B8B8A1AB4CEEEF8D981C8956A6 PUSH2 0x344 PUSH2 0x11A2 JUMP JUMPDEST PUSH2 0xADE JUMPI PUSH1 0x40 MLOAD PUSH3 0x461BCD PUSH1 0xE5 SHL DUP2 MSTORE PUSH1 0x4 ADD PUSH2 0x434 SWAP1 PUSH2 0x2C01 JUMP JUMPDEST PUSH2 0xAF4 CALLER PUSH2 0xAEC PUSH1 0x7 PUSH2 0x161B JUMP JUMPDEST DUP6 DUP6 DUP6 PUSH2 0x161F JUMP JUMPDEST PUSH2 0xA12 PUSH1 0x7 PUSH2 0x1716 JUMP JUMPDEST PUSH2 0xB2A PUSH32 0x65D7A28E3265B37A6474929F336521B332C1681B933F6CB9F3376673440D862A PUSH2 0x344 PUSH2 0x11A2 JUMP JUMPDEST PUSH2 0xB46 JUMPI PUSH1 0x40 MLOAD PUSH3 0x461BCD PUSH1 0xE5 SHL DUP2 MSTORE PUSH1 0x4 ADD PUSH2 0x434 SWAP1 PUSH2 0x2D40 JUMP JUMPDEST PUSH2 0x831 PUSH2 0x171F JUMP JUMPDEST PUSH1 0x8 SLOAD PUSH1 0x1 PUSH1 0x1 PUSH1 0xA0 SHL SUB AND SWAP1 JUMP JUMPDEST PUSH1 0x0 DUP3 DUP2 MSTORE PUSH1 0x20 DUP2 SWAP1 MSTORE PUSH1 0x40 DUP2 KECCAK256 PUSH2 0xB75 SWAP1 DUP4 PUSH2 0x1778 JUMP JUMPDEST SWAP4 SWAP3 POP POP POP JUMP JUMPDEST PUSH1 0x0 DUP3 DUP2 MSTORE PUSH1 0x20 DUP2 SWAP1 MSTORE PUSH1 0x40 DUP2 KECCAK256 PUSH2 0xB75 SWAP1 DUP4 PUSH2 0x1784 JUMP JUMPDEST PUSH1 0x0 DUP2 JUMP JUMPDEST DUP2 PUSH1 0x1 PUSH1 0x1 PUSH1 0xA0 SHL SUB AND PUSH2 0xBAB PUSH2 0x11A2 JUMP JUMPDEST PUSH1 0x1 PUSH1 0x1 PUSH1 0xA0 SHL SUB AND EQ ISZERO PUSH2 0xBD2 JUMPI PUSH1 0x40 MLOAD PUSH3 0x461BCD PUSH1 0xE5 SHL DUP2 MSTORE PUSH1 0x4 ADD PUSH2 0x434 SWAP1 PUSH2 0x2D9D JUMP JUMPDEST DUP1 PUSH1 0x4 PUSH1 0x0 PUSH2 0xBDF PUSH2 0x11A2 JUMP JUMPDEST PUSH1 0x1 PUSH1 0x1 PUSH1 0xA0 SHL SUB SWAP1 DUP2 AND DUP3 MSTORE PUSH1 0x20 DUP1 DUP4 ADD SWAP4 SWAP1 SWAP4 MSTORE PUSH1 0x40 SWAP2 DUP3 ADD PUSH1 0x0 SWAP1 DUP2 KECCAK256 SWAP2 DUP8 AND DUP1 DUP3 MSTORE SWAP2 SWAP1 SWAP4 MSTORE SWAP2 KECCAK256 DUP1 SLOAD PUSH1 0xFF NOT AND SWAP3 ISZERO ISZERO SWAP3 SWAP1 SWAP3 OR SWAP1 SWAP2 SSTORE PUSH2 0xC23 PUSH2 0x11A2 JUMP JUMPDEST PUSH1 0x1 PUSH1 0x1 PUSH1 0xA0 SHL SUB AND PUSH32 0x17307EAB39AB6107E8899845AD3D59BD9653F200F220920489CA2B5937696C31 DUP4 PUSH1 0x40 MLOAD PUSH2 0xC5B SWAP2 SWAP1 PUSH2 0x277D JUMP JUMPDEST PUSH1 0x40 MLOAD DUP1 SWAP2 SUB SWAP1 LOG3 POP POP JUMP JUMPDEST PUSH2 0xC93 PUSH32 0x9F2DF0FED2C77648DE5860A4CC508CD0818C85B8B8A1AB4CEEEF8D981C8956A6 PUSH2 0x344 PUSH2 0x11A2 JUMP JUMPDEST PUSH2 0xCAF JUMPI PUSH1 0x40 MLOAD PUSH3 0x461BCD PUSH1 0xE5 SHL DUP2 MSTORE PUSH1 0x4 ADD PUSH2 0x434 SWAP1 PUSH2 0x2C01 JUMP JUMPDEST PUSH2 0xCBC DUP6 DUP6 DUP6 DUP6 DUP6 PUSH2 0x1799 JUMP JUMPDEST POP POP POP POP POP JUMP JUMPDEST PUSH1 0x0 DUP2 DUP2 MSTORE PUSH1 0x2 PUSH1 0x20 DUP2 SWAP1 MSTORE PUSH1 0x40 SWAP1 SWAP2 KECCAK256 SLOAD PUSH1 0x60 SWAP2 PUSH1 0x0 NOT PUSH2 0x100 PUSH1 0x1 DUP5 AND ISZERO MUL ADD SWAP1 SWAP2 AND DIV PUSH2 0xD05 JUMPI PUSH1 0x40 MLOAD PUSH3 0x461BCD PUSH1 0xE5 SHL DUP2 MSTORE PUSH1 0x4 ADD PUSH2 0x434 SWAP1 PUSH2 0x2C93 JUMP JUMPDEST PUSH1 0x0 DUP3 DUP2 MSTORE PUSH1 0x2 PUSH1 0x20 DUP2 DUP2 MSTORE PUSH1 0x40 SWAP3 DUP4 SWAP1 KECCAK256 DUP1 SLOAD DUP5 MLOAD PUSH1 0x1 DUP3 AND ISZERO PUSH2 0x100 MUL PUSH1 0x0 NOT ADD SWAP1 SWAP2 AND SWAP4 SWAP1 SWAP4 DIV PUSH1 0x1F DUP2 ADD DUP4 SWAP1 DIV DUP4 MUL DUP5 ADD DUP4 ADD SWAP1 SWAP5 MSTORE DUP4 DUP4 MSTORE PUSH1 0x60 SWAP4 SWAP1 SWAP2 DUP4 ADD DUP3 DUP3 DUP1 ISZERO PUSH2 0xD98 JUMPI DUP1 PUSH1 0x1F LT PUSH2 0xD6D JUMPI PUSH2 0x100 DUP1 DUP4 SLOAD DIV MUL DUP4 MSTORE SWAP2 PUSH1 0x20 ADD SWAP2 PUSH2 0xD98 JUMP JUMPDEST DUP3 ADD SWAP2 SWAP1 PUSH1 0x0 MSTORE PUSH1 0x20 PUSH1 0x0 KECCAK256 SWAP1 JUMPDEST DUP2 SLOAD DUP2 MSTORE SWAP1 PUSH1 0x1 ADD SWAP1 PUSH1 0x20 ADD DUP1 DUP4 GT PUSH2 0xD7B JUMPI DUP3 SWAP1 SUB PUSH1 0x1F AND DUP3 ADD SWAP2 JUMPDEST POP POP PUSH1 0x5 SLOAD SWAP4 SWAP5 POP POP POP POP PUSH1 0x2 PUSH1 0x0 NOT PUSH2 0x100 PUSH1 0x1 DUP5 AND ISZERO MUL ADD SWAP1 SWAP2 AND DIV PUSH2 0xDC1 JUMPI SWAP1 POP PUSH2 0x486 JUMP JUMPDEST DUP1 MLOAD ISZERO PUSH2 0xDF3 JUMPI PUSH1 0x5 DUP2 PUSH1 0x40 MLOAD PUSH1 0x20 ADD PUSH2 0xDDC SWAP3 SWAP2 SWAP1 PUSH2 0x2604 JUMP JUMPDEST PUSH1 0x40 MLOAD PUSH1 0x20 DUP2 DUP4 SUB SUB DUP2 MSTORE SWAP1 PUSH1 0x40 MSTORE SWAP2 POP POP PUSH2 0x486 JUMP JUMPDEST PUSH1 0x5 PUSH2 0xDFE DUP5 PUSH2 0x1963 JUMP JUMPDEST PUSH1 0x40 MLOAD PUSH1 0x20 ADD PUSH2 0xE0F SWAP3 SWAP2 SWAP1 PUSH2 0x2604 JUMP JUMPDEST PUSH1 0x40 MLOAD PUSH1 0x20 DUP2 DUP4 SUB SUB DUP2 MSTORE SWAP1 PUSH1 0x40 MSTORE SWAP2 POP POP SWAP2 SWAP1 POP JUMP JUMPDEST PUSH1 0x0 DUP2 DUP2 MSTORE PUSH1 0x20 DUP2 SWAP1 MSTORE PUSH1 0x40 DUP2 KECCAK256 PUSH2 0x462 SWAP1 PUSH2 0x1A3D JUMP JUMPDEST PUSH32 0x9F2DF0FED2C77648DE5860A4CC508CD0818C85B8B8A1AB4CEEEF8D981C8956A6 DUP2 JUMP JUMPDEST PUSH1 0x0 DUP3 DUP2 MSTORE PUSH1 0x20 DUP2 SWAP1 MSTORE PUSH1 0x40 SWAP1 KECCAK256 PUSH1 0x2 ADD SLOAD PUSH2 0xE7F SWAP1 PUSH2 0x344 PUSH2 0x11A2 JUMP JUMPDEST PUSH2 0x7D7 JUMPI PUSH1 0x40 MLOAD PUSH3 0x461BCD PUSH1 0xE5 SHL DUP2 MSTORE PUSH1 0x4 ADD PUSH2 0x434 SWAP1 PUSH2 0x2AAD JUMP JUMPDEST PUSH32 0x65D7A28E3265B37A6474929F336521B332C1681B933F6CB9F3376673440D862A DUP2 JUMP JUMPDEST PUSH1 0x1 PUSH1 0x1 PUSH1 0xA0 SHL SUB SWAP2 DUP3 AND PUSH1 0x0 SWAP1 DUP2 MSTORE PUSH1 0x4 PUSH1 0x20 SWAP1 DUP2 MSTORE PUSH1 0x40 DUP1 DUP4 KECCAK256 SWAP4 SWAP1 SWAP5 AND DUP3 MSTORE SWAP2 SWAP1 SWAP2 MSTORE KECCAK256 SLOAD PUSH1 0xFF AND SWAP1 JUMP JUMPDEST PUSH1 0x1 PUSH1 0x1 PUSH1 0xA0 SHL SUB DUP5 AND PUSH2 0xF13 JUMPI PUSH1 0x40 MLOAD PUSH3 0x461BCD PUSH1 0xE5 SHL DUP2 MSTORE PUSH1 0x4 ADD PUSH2 0x434 SWAP1 PUSH2 0x2B27 JUMP JUMPDEST PUSH2 0xF1B PUSH2 0x11A2 JUMP JUMPDEST PUSH1 0x1 PUSH1 0x1 PUSH1 0xA0 SHL SUB AND DUP6 PUSH1 0x1 PUSH1 0x1 PUSH1 0xA0 SHL SUB AND EQ DUP1 PUSH2 0xF41 JUMPI POP PUSH2 0xF41 DUP6 PUSH2 0x3CE PUSH2 0x11A2 JUMP JUMPDEST PUSH2 0xF5D JUMPI PUSH1 0x40 MLOAD PUSH3 0x461BCD PUSH1 0xE5 SHL DUP2 MSTORE PUSH1 0x4 ADD PUSH2 0x434 SWAP1 PUSH2 0x2A64 JUMP JUMPDEST PUSH1 0x0 PUSH2 0xF67 PUSH2 0x11A2 JUMP JUMPDEST SWAP1 POP PUSH2 0xF87 DUP2 DUP8 DUP8 PUSH2 0xF78 DUP9 PUSH2 0x1A48 JUMP JUMPDEST PUSH2 0xF81 DUP9 PUSH2 0x1A48 JUMP JUMPDEST DUP8 PUSH2 0x11A6 JUMP JUMPDEST PUSH2 0xFCE DUP4 PUSH1 0x40 MLOAD DUP1 PUSH1 0x60 ADD PUSH1 0x40 MSTORE DUP1 PUSH1 0x2A DUP2 MSTORE PUSH1 0x20 ADD PUSH2 0x3084 PUSH1 0x2A SWAP2 CODECOPY PUSH1 0x0 DUP8 DUP2 MSTORE PUSH1 0x3 PUSH1 0x20 SWAP1 DUP2 MSTORE PUSH1 0x40 DUP1 DUP4 KECCAK256 PUSH1 0x1 PUSH1 0x1 PUSH1 0xA0 SHL SUB DUP14 AND DUP5 MSTORE SWAP1 SWAP2 MSTORE SWAP1 KECCAK256 SLOAD SWAP2 SWAP1 PUSH2 0x11B4 JUMP JUMPDEST PUSH1 0x0 DUP6 DUP2 MSTORE PUSH1 0x3 PUSH1 0x20 SWAP1 DUP2 MSTORE PUSH1 0x40 DUP1 DUP4 KECCAK256 PUSH1 0x1 PUSH1 0x1 PUSH1 0xA0 SHL SUB DUP12 DUP2 AND DUP6 MSTORE SWAP3 MSTORE DUP1 DUP4 KECCAK256 SWAP4 SWAP1 SWAP4 SSTORE DUP8 AND DUP2 MSTORE KECCAK256 SLOAD PUSH2 0x1005 SWAP1 DUP5 PUSH2 0x11E0 JUMP JUMPDEST PUSH1 0x0 DUP6 DUP2 MSTORE PUSH1 0x3 PUSH1 0x20 SWAP1 DUP2 MSTORE PUSH1 0x40 DUP1 DUP4 KECCAK256 PUSH1 0x1 PUSH1 0x1 PUSH1 0xA0 SHL SUB DUP1 DUP12 AND DUP1 DUP7 MSTORE SWAP2 SWAP1 SWAP4 MSTORE SWAP3 DUP2 SWAP1 KECCAK256 SWAP4 SWAP1 SWAP4 SSTORE SWAP2 MLOAD SWAP1 SWAP2 DUP9 DUP2 AND SWAP2 SWAP1 DUP5 AND SWAP1 PUSH32 0xC3D58168C5AE7397731D063D5BBF3D657854427343F4C083240F7AACAA2D0F62 SWAP1 PUSH2 0x106B SWAP1 DUP10 SWAP1 DUP10 SWAP1 PUSH2 0x2F07 JUMP JUMPDEST PUSH1 0x40 MLOAD DUP1 SWAP2 SUB SWAP1 LOG4 PUSH2 0x74F DUP2 DUP8 DUP8 DUP8 DUP8 DUP8 PUSH2 0x1A8C JUMP JUMPDEST PUSH2 0x1089 PUSH2 0x11A2 JUMP JUMPDEST PUSH1 0x8 SLOAD PUSH1 0x1 PUSH1 0x1 PUSH1 0xA0 SHL SUB SWAP1 DUP2 AND SWAP2 AND EQ PUSH2 0x10B6 JUMPI PUSH1 0x40 MLOAD PUSH3 0x461BCD PUSH1 0xE5 SHL DUP2 MSTORE PUSH1 0x4 ADD PUSH2 0x434 SWAP1 PUSH2 0x2C5E JUMP JUMPDEST PUSH1 0x1 PUSH1 0x1 PUSH1 0xA0 SHL SUB DUP2 AND PUSH2 0x10DC JUMPI PUSH1 0x40 MLOAD PUSH3 0x461BCD PUSH1 0xE5 SHL DUP2 MSTORE PUSH1 0x4 ADD PUSH2 0x434 SWAP1 PUSH2 0x299B JUMP JUMPDEST PUSH1 0x8 SLOAD PUSH1 0x40 MLOAD PUSH1 0x1 PUSH1 0x1 PUSH1 0xA0 SHL SUB DUP1 DUP5 AND SWAP3 AND SWAP1 PUSH32 0x8BE0079C531659141344CD1FD0A4F28419497F9722A3DAAFE3B4186F6B6457E0 SWAP1 PUSH1 0x0 SWAP1 LOG3 PUSH1 0x8 DUP1 SLOAD PUSH1 0x1 PUSH1 0x1 PUSH1 0xA0 SHL SUB NOT AND PUSH1 0x1 PUSH1 0x1 PUSH1 0xA0 SHL SUB SWAP3 SWAP1 SWAP3 AND SWAP2 SWAP1 SWAP2 OR SWAP1 SSTORE JUMP JUMPDEST PUSH2 0x1140 PUSH2 0x11A2 JUMP JUMPDEST PUSH1 0x1 PUSH1 0x1 PUSH1 0xA0 SHL SUB AND DUP4 PUSH1 0x1 PUSH1 0x1 PUSH1 0xA0 SHL SUB AND EQ DUP1 PUSH2 0x1166 JUMPI POP PUSH2 0x1166 DUP4 PUSH2 0x3CE PUSH2 0x11A2 JUMP JUMPDEST PUSH2 0x1182 JUMPI PUSH1 0x40 MLOAD PUSH3 0x461BCD PUSH1 0xE5 SHL DUP2 MSTORE PUSH1 0x4 ADD PUSH2 0x434 SWAP1 PUSH2 0x2A64 JUMP JUMPDEST PUSH2 0xA12 DUP4 DUP4 DUP4 PUSH2 0x1B5D JUMP JUMPDEST PUSH1 0x0 PUSH2 0xB75 DUP4 PUSH1 0x1 PUSH1 0x1 PUSH1 0xA0 SHL SUB DUP5 AND PUSH2 0x1CB2 JUMP JUMPDEST CALLER SWAP1 JUMP JUMPDEST PUSH2 0x74F DUP7 DUP7 DUP7 DUP7 DUP7 DUP7 PUSH2 0x1CFC JUMP JUMPDEST PUSH1 0x0 DUP2 DUP5 DUP5 GT ISZERO PUSH2 0x11D8 JUMPI PUSH1 0x40 MLOAD PUSH3 0x461BCD PUSH1 0xE5 SHL DUP2 MSTORE PUSH1 0x4 ADD PUSH2 0x434 SWAP2 SWAP1 PUSH2 0x2791 JUMP JUMPDEST POP POP POP SWAP1 SUB SWAP1 JUMP JUMPDEST PUSH1 0x0 DUP3 DUP3 ADD DUP4 DUP2 LT ISZERO PUSH2 0xB75 JUMPI PUSH1 0x40 MLOAD PUSH3 0x461BCD PUSH1 0xE5 SHL DUP2 MSTORE PUSH1 0x4 ADD PUSH2 0x434 SWAP1 PUSH2 0x29E1 JUMP JUMPDEST PUSH2 0x1217 DUP5 PUSH1 0x1 PUSH1 0x1 PUSH1 0xA0 SHL SUB AND PUSH2 0x1D2F JUMP JUMPDEST ISZERO PUSH2 0x74F JUMPI PUSH1 0x40 MLOAD PUSH4 0xBC197C81 PUSH1 0xE0 SHL DUP2 MSTORE PUSH1 0x1 PUSH1 0x1 PUSH1 0xA0 SHL SUB DUP6 AND SWAP1 PUSH4 0xBC197C81 SWAP1 PUSH2 0x1250 SWAP1 DUP10 SWAP1 DUP10 SWAP1 DUP9 SWAP1 DUP9 SWAP1 DUP9 SWAP1 PUSH1 0x4 ADD PUSH2 0x2699 JUMP JUMPDEST PUSH1 0x20 PUSH1 0x40 MLOAD DUP1 DUP4 SUB DUP2 PUSH1 0x0 DUP8 DUP1 EXTCODESIZE ISZERO DUP1 ISZERO PUSH2 0x126A JUMPI PUSH1 0x0 DUP1 REVERT JUMPDEST POP GAS CALL SWAP3 POP POP POP DUP1 ISZERO PUSH2 0x129A JUMPI POP PUSH1 0x40 DUP1 MLOAD PUSH1 0x1F RETURNDATASIZE SWAP1 DUP2 ADD PUSH1 0x1F NOT AND DUP3 ADD SWAP1 SWAP3 MSTORE PUSH2 0x1297 SWAP2 DUP2 ADD SWAP1 PUSH2 0x24E9 JUMP JUMPDEST PUSH1 0x1 JUMPDEST PUSH2 0x12E3 JUMPI PUSH2 0x12A6 PUSH2 0x2F90 JUMP JUMPDEST DUP1 PUSH2 0x12B1 JUMPI POP PUSH2 0x12CB JUMP JUMPDEST DUP1 PUSH1 0x40 MLOAD PUSH3 0x461BCD PUSH1 0xE5 SHL DUP2 MSTORE PUSH1 0x4 ADD PUSH2 0x434 SWAP2 SWAP1 PUSH2 0x2791 JUMP JUMPDEST PUSH1 0x40 MLOAD PUSH3 0x461BCD PUSH1 0xE5 SHL DUP2 MSTORE PUSH1 0x4 ADD PUSH2 0x434 SWAP1 PUSH2 0x27A4 JUMP JUMPDEST PUSH1 0x1 PUSH1 0x1 PUSH1 0xE0 SHL SUB NOT DUP2 AND PUSH4 0xBC197C81 PUSH1 0xE0 SHL EQ PUSH2 0x1313 JUMPI PUSH1 0x40 MLOAD PUSH3 0x461BCD PUSH1 0xE5 SHL DUP2 MSTORE PUSH1 0x4 ADD PUSH2 0x434 SWAP1 PUSH2 0x283A JUMP JUMPDEST POP POP POP POP POP POP POP JUMP JUMPDEST PUSH1 0x0 DUP3 DUP2 MSTORE PUSH1 0x20 DUP2 SWAP1 MSTORE PUSH1 0x40 SWAP1 KECCAK256 PUSH2 0x1334 SWAP1 DUP3 PUSH2 0x118D JUMP JUMPDEST ISZERO PUSH2 0x79B JUMPI PUSH2 0x1341 PUSH2 0x11A2 JUMP JUMPDEST PUSH1 0x1 PUSH1 0x1 PUSH1 0xA0 SHL SUB AND DUP2 PUSH1 0x1 PUSH1 0x1 PUSH1 0xA0 SHL SUB AND DUP4 PUSH32 0x2F8788117E7EFF1D82E926EC794901D17C78024A50270940304540A733656F0D PUSH1 0x40 MLOAD PUSH1 0x40 MLOAD DUP1 SWAP2 SUB SWAP1 LOG4 POP POP JUMP JUMPDEST PUSH1 0x0 DUP3 DUP2 MSTORE PUSH1 0x20 DUP2 SWAP1 MSTORE PUSH1 0x40 SWAP1 KECCAK256 PUSH2 0x139D SWAP1 DUP3 PUSH2 0x1D35 JUMP JUMPDEST ISZERO PUSH2 0x79B JUMPI PUSH2 0x13AA PUSH2 0x11A2 JUMP JUMPDEST PUSH1 0x1 PUSH1 0x1 PUSH1 0xA0 SHL SUB AND DUP2 PUSH1 0x1 PUSH1 0x1 PUSH1 0xA0 SHL SUB AND DUP4 PUSH32 0xF6391F5C32D9C69D2A47EA670B442974B53935D1EDC7FD64EB21E047A839171B PUSH1 0x40 MLOAD PUSH1 0x40 MLOAD DUP1 SWAP2 SUB SWAP1 LOG4 POP POP JUMP JUMPDEST PUSH1 0x6 SLOAD PUSH1 0xFF AND PUSH2 0x1410 JUMPI PUSH1 0x40 MLOAD PUSH3 0x461BCD PUSH1 0xE5 SHL DUP2 MSTORE PUSH1 0x4 ADD PUSH2 0x434 SWAP1 PUSH2 0x28D1 JUMP JUMPDEST PUSH1 0x6 DUP1 SLOAD PUSH1 0xFF NOT AND SWAP1 SSTORE PUSH32 0x5DB9EE0A495BF2E6FF9C91A7834C1BA4FDD244A5E8AA4E537BD38AEAE4B073AA PUSH2 0x1443 PUSH2 0x11A2 JUMP JUMPDEST PUSH1 0x40 MLOAD PUSH2 0x1450 SWAP2 SWAP1 PUSH2 0x2685 JUMP JUMPDEST PUSH1 0x40 MLOAD DUP1 SWAP2 SUB SWAP1 LOG1 JUMP JUMPDEST DUP1 MLOAD PUSH2 0x79B SWAP1 PUSH1 0x5 SWAP1 PUSH1 0x20 DUP5 ADD SWAP1 PUSH2 0x1E8C JUMP JUMPDEST PUSH1 0x1 PUSH1 0x1 PUSH1 0xA0 SHL SUB DUP4 AND PUSH2 0x1493 JUMPI PUSH1 0x40 MLOAD PUSH3 0x461BCD PUSH1 0xE5 SHL DUP2 MSTORE PUSH1 0x4 ADD PUSH2 0x434 SWAP1 PUSH2 0x2BBE JUMP JUMPDEST DUP1 MLOAD DUP3 MLOAD EQ PUSH2 0x14B4 JUMPI PUSH1 0x40 MLOAD PUSH3 0x461BCD PUSH1 0xE5 SHL DUP2 MSTORE PUSH1 0x4 ADD PUSH2 0x434 SWAP1 PUSH2 0x2E2F JUMP JUMPDEST PUSH1 0x0 PUSH2 0x14BE PUSH2 0x11A2 JUMP JUMPDEST SWAP1 POP PUSH2 0x14DE DUP2 DUP6 PUSH1 0x0 DUP7 DUP7 PUSH1 0x40 MLOAD DUP1 PUSH1 0x20 ADD PUSH1 0x40 MSTORE DUP1 PUSH1 0x0 DUP2 MSTORE POP PUSH2 0x11A6 JUMP JUMPDEST PUSH1 0x0 JUMPDEST DUP4 MLOAD DUP2 LT ISZERO PUSH2 0x15BC JUMPI PUSH2 0x1573 DUP4 DUP3 DUP2 MLOAD DUP2 LT PUSH2 0x14F9 JUMPI INVALID JUMPDEST PUSH1 0x20 MUL PUSH1 0x20 ADD ADD MLOAD PUSH1 0x40 MLOAD DUP1 PUSH1 0x60 ADD PUSH1 0x40 MSTORE DUP1 PUSH1 0x24 DUP2 MSTORE PUSH1 0x20 ADD PUSH2 0x3060 PUSH1 0x24 SWAP2 CODECOPY PUSH1 0x3 PUSH1 0x0 DUP9 DUP7 DUP2 MLOAD DUP2 LT PUSH2 0x152A JUMPI INVALID JUMPDEST PUSH1 0x20 MUL PUSH1 0x20 ADD ADD MLOAD DUP2 MSTORE PUSH1 0x20 ADD SWAP1 DUP2 MSTORE PUSH1 0x20 ADD PUSH1 0x0 KECCAK256 PUSH1 0x0 DUP10 PUSH1 0x1 PUSH1 0x1 PUSH1 0xA0 SHL SUB AND PUSH1 0x1 PUSH1 0x1 PUSH1 0xA0 SHL SUB AND DUP2 MSTORE PUSH1 0x20 ADD SWAP1 DUP2 MSTORE PUSH1 0x20 ADD PUSH1 0x0 KECCAK256 SLOAD PUSH2 0x11B4 SWAP1 SWAP3 SWAP2 SWAP1 PUSH4 0xFFFFFFFF AND JUMP JUMPDEST PUSH1 0x3 PUSH1 0x0 DUP7 DUP5 DUP2 MLOAD DUP2 LT PUSH2 0x1583 JUMPI INVALID JUMPDEST PUSH1 0x20 SWAP1 DUP2 MUL SWAP2 SWAP1 SWAP2 ADD DUP2 ADD MLOAD DUP3 MSTORE DUP2 DUP2 ADD SWAP3 SWAP1 SWAP3 MSTORE PUSH1 0x40 SWAP1 DUP2 ADD PUSH1 0x0 SWAP1 DUP2 KECCAK256 PUSH1 0x1 PUSH1 0x1 PUSH1 0xA0 SHL SUB DUP11 AND DUP3 MSTORE SWAP1 SWAP3 MSTORE SWAP1 KECCAK256 SSTORE PUSH1 0x1 ADD PUSH2 0x14E1 JUMP JUMPDEST POP PUSH1 0x0 PUSH1 0x1 PUSH1 0x1 PUSH1 0xA0 SHL SUB AND DUP5 PUSH1 0x1 PUSH1 0x1 PUSH1 0xA0 SHL SUB AND DUP3 PUSH1 0x1 PUSH1 0x1 PUSH1 0xA0 SHL SUB AND PUSH32 0x4A39DC06D4C0DBC64B70AF90FD698A233A518AA5D07E595D983B8C0526C8F7FB DUP7 DUP7 PUSH1 0x40 MLOAD PUSH2 0x160D SWAP3 SWAP2 SWAP1 PUSH2 0x274F JUMP JUMPDEST PUSH1 0x40 MLOAD DUP1 SWAP2 SUB SWAP1 LOG4 POP POP POP POP JUMP JUMPDEST SLOAD SWAP1 JUMP JUMPDEST PUSH1 0x1 PUSH1 0x1 PUSH1 0xA0 SHL SUB DUP6 AND PUSH2 0x1645 JUMPI PUSH1 0x40 MLOAD PUSH3 0x461BCD PUSH1 0xE5 SHL DUP2 MSTORE PUSH1 0x4 ADD PUSH2 0x434 SWAP1 PUSH2 0x2E77 JUMP JUMPDEST PUSH1 0x0 PUSH2 0x164F PUSH2 0x11A2 JUMP JUMPDEST SWAP1 POP PUSH2 0x166A DUP2 PUSH1 0x0 DUP9 PUSH2 0x1661 DUP10 PUSH2 0x1A48 JUMP JUMPDEST PUSH2 0xF81 DUP10 PUSH2 0x1A48 JUMP JUMPDEST PUSH1 0x0 DUP6 DUP2 MSTORE PUSH1 0x3 PUSH1 0x20 SWAP1 DUP2 MSTORE PUSH1 0x40 DUP1 DUP4 KECCAK256 PUSH1 0x1 PUSH1 0x1 PUSH1 0xA0 SHL SUB DUP11 AND DUP5 MSTORE SWAP1 SWAP2 MSTORE SWAP1 KECCAK256 SLOAD PUSH2 0x1697 SWAP1 DUP6 PUSH2 0x11E0 JUMP JUMPDEST PUSH1 0x0 DUP7 DUP2 MSTORE PUSH1 0x3 PUSH1 0x20 SWAP1 DUP2 MSTORE PUSH1 0x40 DUP1 DUP4 KECCAK256 PUSH1 0x1 PUSH1 0x1 PUSH1 0xA0 SHL SUB DUP1 DUP13 AND DUP1 DUP7 MSTORE SWAP2 SWAP1 SWAP4 MSTORE DUP2 DUP5 KECCAK256 SWAP5 SWAP1 SWAP5 SSTORE MLOAD SWAP1 DUP5 AND SWAP1 PUSH32 0xC3D58168C5AE7397731D063D5BBF3D657854427343F4C083240F7AACAA2D0F62 SWAP1 PUSH2 0x16F5 SWAP1 DUP11 SWAP1 DUP11 SWAP1 PUSH2 0x2F07 JUMP JUMPDEST PUSH1 0x40 MLOAD DUP1 SWAP2 SUB SWAP1 LOG4 PUSH2 0x1707 DUP6 DUP5 PUSH2 0x1D4A JUMP JUMPDEST PUSH2 0x74F DUP2 PUSH1 0x0 DUP9 DUP9 DUP9 DUP8 PUSH2 0x1A8C JUMP JUMPDEST DUP1 SLOAD PUSH1 0x1 ADD SWAP1 SSTORE JUMP JUMPDEST PUSH1 0x6 SLOAD PUSH1 0xFF AND ISZERO PUSH2 0x1742 JUMPI PUSH1 0x40 MLOAD PUSH3 0x461BCD PUSH1 0xE5 SHL DUP2 MSTORE PUSH1 0x4 ADD PUSH2 0x434 SWAP1 PUSH2 0x2AFD JUMP JUMPDEST PUSH1 0x6 DUP1 SLOAD PUSH1 0xFF NOT AND PUSH1 0x1 OR SWAP1 SSTORE PUSH32 0x62E78CEA01BEE320CD4E420270B5EA74000D11B0C9F74754EBDBFC544B05A258 PUSH2 0x1443 PUSH2 0x11A2 JUMP JUMPDEST PUSH1 0x0 PUSH2 0xB75 DUP4 DUP4 PUSH2 0x1D69 JUMP JUMPDEST PUSH1 0x0 PUSH2 0xB75 DUP4 PUSH1 0x1 PUSH1 0x1 PUSH1 0xA0 SHL SUB DUP5 AND PUSH2 0x1DAE JUMP JUMPDEST PUSH1 0x1 PUSH1 0x1 PUSH1 0xA0 SHL SUB DUP6 AND PUSH2 0x17BF JUMPI PUSH1 0x40 MLOAD PUSH3 0x461BCD PUSH1 0xE5 SHL DUP2 MSTORE PUSH1 0x4 ADD PUSH2 0x434 SWAP1 PUSH2 0x2E77 JUMP JUMPDEST DUP3 MLOAD DUP5 MLOAD EQ PUSH2 0x17E0 JUMPI PUSH1 0x40 MLOAD PUSH3 0x461BCD PUSH1 0xE5 SHL DUP2 MSTORE PUSH1 0x4 ADD PUSH2 0x434 SWAP1 PUSH2 0x2E2F JUMP JUMPDEST PUSH1 0x0 PUSH2 0x17EA PUSH2 0x11A2 JUMP JUMPDEST SWAP1 POP PUSH2 0x17FB DUP2 PUSH1 0x0 DUP9 DUP9 DUP9 DUP8 PUSH2 0x11A6 JUMP JUMPDEST PUSH1 0x0 JUMPDEST DUP6 MLOAD DUP2 LT ISZERO PUSH2 0x18FB JUMPI PUSH2 0x1876 PUSH1 0x3 PUSH1 0x0 DUP9 DUP5 DUP2 MLOAD DUP2 LT PUSH2 0x181A JUMPI INVALID JUMPDEST PUSH1 0x20 MUL PUSH1 0x20 ADD ADD MLOAD DUP2 MSTORE PUSH1 0x20 ADD SWAP1 DUP2 MSTORE PUSH1 0x20 ADD PUSH1 0x0 KECCAK256 PUSH1 0x0 DUP10 PUSH1 0x1 PUSH1 0x1 PUSH1 0xA0 SHL SUB AND PUSH1 0x1 PUSH1 0x1 PUSH1 0xA0 SHL SUB AND DUP2 MSTORE PUSH1 0x20 ADD SWAP1 DUP2 MSTORE PUSH1 0x20 ADD PUSH1 0x0 KECCAK256 SLOAD DUP7 DUP4 DUP2 MLOAD DUP2 LT PUSH2 0x1860 JUMPI INVALID JUMPDEST PUSH1 0x20 MUL PUSH1 0x20 ADD ADD MLOAD PUSH2 0x11E0 SWAP1 SWAP2 SWAP1 PUSH4 0xFFFFFFFF AND JUMP JUMPDEST PUSH1 0x3 PUSH1 0x0 DUP9 DUP5 DUP2 MLOAD DUP2 LT PUSH2 0x1886 JUMPI INVALID JUMPDEST PUSH1 0x20 MUL PUSH1 0x20 ADD ADD MLOAD DUP2 MSTORE PUSH1 0x20 ADD SWAP1 DUP2 MSTORE PUSH1 0x20 ADD PUSH1 0x0 KECCAK256 PUSH1 0x0 DUP10 PUSH1 0x1 PUSH1 0x1 PUSH1 0xA0 SHL SUB AND PUSH1 0x1 PUSH1 0x1 PUSH1 0xA0 SHL SUB AND DUP2 MSTORE PUSH1 0x20 ADD SWAP1 DUP2 MSTORE PUSH1 0x20 ADD PUSH1 0x0 KECCAK256 DUP2 SWAP1 SSTORE POP PUSH2 0x18F3 DUP7 DUP3 DUP2 MLOAD DUP2 LT PUSH2 0x18D2 JUMPI INVALID JUMPDEST PUSH1 0x20 MUL PUSH1 0x20 ADD ADD MLOAD DUP6 DUP4 DUP2 MLOAD DUP2 LT PUSH2 0x18E6 JUMPI INVALID JUMPDEST PUSH1 0x20 MUL PUSH1 0x20 ADD ADD MLOAD PUSH2 0x1D4A JUMP JUMPDEST PUSH1 0x1 ADD PUSH2 0x17FE JUMP JUMPDEST POP DUP6 PUSH1 0x1 PUSH1 0x1 PUSH1 0xA0 SHL SUB AND PUSH1 0x0 PUSH1 0x1 PUSH1 0x1 PUSH1 0xA0 SHL SUB AND DUP3 PUSH1 0x1 PUSH1 0x1 PUSH1 0xA0 SHL SUB AND PUSH32 0x4A39DC06D4C0DBC64B70AF90FD698A233A518AA5D07E595D983B8C0526C8F7FB DUP9 DUP9 PUSH1 0x40 MLOAD PUSH2 0x194C SWAP3 SWAP2 SWAP1 PUSH2 0x274F JUMP JUMPDEST PUSH1 0x40 MLOAD DUP1 SWAP2 SUB SWAP1 LOG4 PUSH2 0x74F DUP2 PUSH1 0x0 DUP9 DUP9 DUP9 DUP8 PUSH2 0x1205 JUMP JUMPDEST PUSH1 0x60 DUP2 PUSH2 0x1988 JUMPI POP PUSH1 0x40 DUP1 MLOAD DUP1 DUP3 ADD SWAP1 SWAP2 MSTORE PUSH1 0x1 DUP2 MSTORE PUSH1 0x3 PUSH1 0xFC SHL PUSH1 0x20 DUP3 ADD MSTORE PUSH2 0x486 JUMP JUMPDEST DUP2 PUSH1 0x0 JUMPDEST DUP2 ISZERO PUSH2 0x19A0 JUMPI PUSH1 0x1 ADD PUSH1 0xA DUP3 DIV SWAP2 POP PUSH2 0x198C JUMP JUMPDEST PUSH1 0x60 DUP2 PUSH1 0x1 PUSH1 0x1 PUSH1 0x40 SHL SUB DUP2 GT DUP1 ISZERO PUSH2 0x19B8 JUMPI PUSH1 0x0 DUP1 REVERT JUMPDEST POP PUSH1 0x40 MLOAD SWAP1 DUP1 DUP3 MSTORE DUP1 PUSH1 0x1F ADD PUSH1 0x1F NOT AND PUSH1 0x20 ADD DUP3 ADD PUSH1 0x40 MSTORE DUP1 ISZERO PUSH2 0x19E3 JUMPI PUSH1 0x20 DUP3 ADD DUP2 DUP1 CALLDATASIZE DUP4 CALLDATACOPY ADD SWAP1 POP JUMPDEST POP DUP6 SWAP4 POP SWAP1 POP PUSH1 0x0 NOT DUP3 ADD JUMPDEST DUP4 ISZERO PUSH2 0x1A34 JUMPI PUSH1 0xA DUP5 MOD PUSH1 0x30 ADD PUSH1 0xF8 SHL DUP3 DUP3 DUP1 PUSH1 0x1 SWAP1 SUB SWAP4 POP DUP2 MLOAD DUP2 LT PUSH2 0x1A12 JUMPI INVALID JUMPDEST PUSH1 0x20 ADD ADD SWAP1 PUSH1 0x1 PUSH1 0x1 PUSH1 0xF8 SHL SUB NOT AND SWAP1 DUP2 PUSH1 0x0 BYTE SWAP1 MSTORE8 POP PUSH1 0xA DUP5 DIV SWAP4 POP PUSH2 0x19EF JUMP JUMPDEST POP SWAP5 SWAP4 POP POP POP POP JUMP JUMPDEST PUSH1 0x0 PUSH2 0x462 DUP3 PUSH2 0x161B JUMP JUMPDEST PUSH1 0x40 DUP1 MLOAD PUSH1 0x1 DUP1 DUP3 MSTORE DUP2 DUP4 ADD SWAP1 SWAP3 MSTORE PUSH1 0x60 SWAP2 DUP3 SWAP2 SWAP1 PUSH1 0x20 DUP1 DUP4 ADD SWAP1 DUP1 CALLDATASIZE DUP4 CALLDATACOPY ADD SWAP1 POP POP SWAP1 POP DUP3 DUP2 PUSH1 0x0 DUP2 MLOAD DUP2 LT PUSH2 0x1A7B JUMPI INVALID JUMPDEST PUSH1 0x20 SWAP1 DUP2 MUL SWAP2 SWAP1 SWAP2 ADD ADD MSTORE SWAP3 SWAP2 POP POP JUMP JUMPDEST PUSH2 0x1A9E DUP5 PUSH1 0x1 PUSH1 0x1 PUSH1 0xA0 SHL SUB AND PUSH2 0x1D2F JUMP JUMPDEST ISZERO PUSH2 0x74F JUMPI PUSH1 0x40 MLOAD PUSH4 0xF23A6E61 PUSH1 0xE0 SHL DUP2 MSTORE PUSH1 0x1 PUSH1 0x1 PUSH1 0xA0 SHL SUB DUP6 AND SWAP1 PUSH4 0xF23A6E61 SWAP1 PUSH2 0x1AD7 SWAP1 DUP10 SWAP1 DUP10 SWAP1 DUP9 SWAP1 DUP9 SWAP1 DUP9 SWAP1 PUSH1 0x4 ADD PUSH2 0x26F7 JUMP JUMPDEST PUSH1 0x20 PUSH1 0x40 MLOAD DUP1 DUP4 SUB DUP2 PUSH1 0x0 DUP8 DUP1 EXTCODESIZE ISZERO DUP1 ISZERO PUSH2 0x1AF1 JUMPI PUSH1 0x0 DUP1 REVERT JUMPDEST POP GAS CALL SWAP3 POP POP POP DUP1 ISZERO PUSH2 0x1B21 JUMPI POP PUSH1 0x40 DUP1 MLOAD PUSH1 0x1F RETURNDATASIZE SWAP1 DUP2 ADD PUSH1 0x1F NOT AND DUP3 ADD SWAP1 SWAP3 MSTORE PUSH2 0x1B1E SWAP2 DUP2 ADD SWAP1 PUSH2 0x24E9 JUMP JUMPDEST PUSH1 0x1 JUMPDEST PUSH2 0x1B2D JUMPI PUSH2 0x12A6 PUSH2 0x2F90 JUMP JUMPDEST PUSH1 0x1 PUSH1 0x1 PUSH1 0xE0 SHL SUB NOT DUP2 AND PUSH4 0xF23A6E61 PUSH1 0xE0 SHL EQ PUSH2 0x1313 JUMPI PUSH1 0x40 MLOAD PUSH3 0x461BCD PUSH1 0xE5 SHL DUP2 MSTORE PUSH1 0x4 ADD PUSH2 0x434 SWAP1 PUSH2 0x283A JUMP JUMPDEST PUSH1 0x1 PUSH1 0x1 PUSH1 0xA0 SHL SUB DUP4 AND PUSH2 0x1B83 JUMPI PUSH1 0x40 MLOAD PUSH3 0x461BCD PUSH1 0xE5 SHL DUP2 MSTORE PUSH1 0x4 ADD PUSH2 0x434 SWAP1 PUSH2 0x2BBE JUMP JUMPDEST PUSH1 0x0 PUSH2 0x1B8D PUSH2 0x11A2 JUMP JUMPDEST SWAP1 POP PUSH2 0x1BBD DUP2 DUP6 PUSH1 0x0 PUSH2 0x1B9F DUP8 PUSH2 0x1A48 JUMP JUMPDEST PUSH2 0x1BA8 DUP8 PUSH2 0x1A48 JUMP JUMPDEST PUSH1 0x40 MLOAD DUP1 PUSH1 0x20 ADD PUSH1 0x40 MSTORE DUP1 PUSH1 0x0 DUP2 MSTORE POP PUSH2 0x11A6 JUMP JUMPDEST PUSH2 0x1C04 DUP3 PUSH1 0x40 MLOAD DUP1 PUSH1 0x60 ADD PUSH1 0x40 MSTORE DUP1 PUSH1 0x24 DUP2 MSTORE PUSH1 0x20 ADD PUSH2 0x3060 PUSH1 0x24 SWAP2 CODECOPY PUSH1 0x0 DUP7 DUP2 MSTORE PUSH1 0x3 PUSH1 0x20 SWAP1 DUP2 MSTORE PUSH1 0x40 DUP1 DUP4 KECCAK256 PUSH1 0x1 PUSH1 0x1 PUSH1 0xA0 SHL SUB DUP12 AND DUP5 MSTORE SWAP1 SWAP2 MSTORE SWAP1 KECCAK256 SLOAD SWAP2 SWAP1 PUSH2 0x11B4 JUMP JUMPDEST PUSH1 0x0 DUP5 DUP2 MSTORE PUSH1 0x3 PUSH1 0x20 SWAP1 DUP2 MSTORE PUSH1 0x40 DUP1 DUP4 KECCAK256 PUSH1 0x1 PUSH1 0x1 PUSH1 0xA0 SHL SUB DUP10 AND DUP5 MSTORE DUP3 MSTORE DUP1 DUP4 KECCAK256 SWAP4 SWAP1 SWAP4 SSTORE DUP6 DUP3 MSTORE PUSH1 0x2 SWAP1 DUP2 SWAP1 MSTORE SWAP2 SWAP1 KECCAK256 SLOAD PUSH1 0x0 NOT PUSH2 0x100 PUSH1 0x1 DUP4 AND ISZERO MUL ADD AND DIV ISZERO PUSH2 0x1C62 JUMPI PUSH1 0x0 DUP4 DUP2 MSTORE PUSH1 0x2 PUSH1 0x20 MSTORE PUSH1 0x40 DUP2 KECCAK256 PUSH2 0x1C62 SWAP2 PUSH2 0x1F0A JUMP JUMPDEST PUSH1 0x0 PUSH1 0x1 PUSH1 0x1 PUSH1 0xA0 SHL SUB AND DUP5 PUSH1 0x1 PUSH1 0x1 PUSH1 0xA0 SHL SUB AND DUP3 PUSH1 0x1 PUSH1 0x1 PUSH1 0xA0 SHL SUB AND PUSH32 0xC3D58168C5AE7397731D063D5BBF3D657854427343F4C083240F7AACAA2D0F62 DUP7 DUP7 PUSH1 0x40 MLOAD PUSH2 0x160D SWAP3 SWAP2 SWAP1 PUSH2 0x2F07 JUMP JUMPDEST PUSH1 0x0 PUSH2 0x1CBE DUP4 DUP4 PUSH2 0x1DAE JUMP JUMPDEST PUSH2 0x1CF4 JUMPI POP DUP2 SLOAD PUSH1 0x1 DUP2 DUP2 ADD DUP5 SSTORE PUSH1 0x0 DUP5 DUP2 MSTORE PUSH1 0x20 DUP1 DUP3 KECCAK256 SWAP1 SWAP4 ADD DUP5 SWAP1 SSTORE DUP5 SLOAD DUP5 DUP3 MSTORE DUP3 DUP7 ADD SWAP1 SWAP4 MSTORE PUSH1 0x40 SWAP1 KECCAK256 SWAP2 SWAP1 SWAP2 SSTORE PUSH2 0x462 JUMP JUMPDEST POP PUSH1 0x0 PUSH2 0x462 JUMP JUMPDEST PUSH2 0x1D0A DUP7 DUP7 DUP7 DUP7 DUP7 DUP7 PUSH2 0x74F JUMP JUMPDEST PUSH2 0x1D12 PUSH2 0x9B3 JUMP JUMPDEST ISZERO PUSH2 0x74F JUMPI PUSH1 0x40 MLOAD PUSH3 0x461BCD PUSH1 0xE5 SHL DUP2 MSTORE PUSH1 0x4 ADD PUSH2 0x434 SWAP1 PUSH2 0x2A18 JUMP JUMPDEST EXTCODESIZE ISZERO ISZERO SWAP1 JUMP JUMPDEST PUSH1 0x0 PUSH2 0xB75 DUP4 PUSH1 0x1 PUSH1 0x1 PUSH1 0xA0 SHL SUB DUP5 AND PUSH2 0x1DC6 JUMP JUMPDEST PUSH1 0x0 DUP3 DUP2 MSTORE PUSH1 0x2 PUSH1 0x20 SWAP1 DUP2 MSTORE PUSH1 0x40 SWAP1 SWAP2 KECCAK256 DUP3 MLOAD PUSH2 0xA12 SWAP3 DUP5 ADD SWAP1 PUSH2 0x1E8C JUMP JUMPDEST DUP2 SLOAD PUSH1 0x0 SWAP1 DUP3 LT PUSH2 0x1D8C JUMPI PUSH1 0x40 MLOAD PUSH3 0x461BCD PUSH1 0xE5 SHL DUP2 MSTORE PUSH1 0x4 ADD PUSH2 0x434 SWAP1 PUSH2 0x27F8 JUMP JUMPDEST DUP3 PUSH1 0x0 ADD DUP3 DUP2 SLOAD DUP2 LT PUSH2 0x1D9B JUMPI INVALID JUMPDEST SWAP1 PUSH1 0x0 MSTORE PUSH1 0x20 PUSH1 0x0 KECCAK256 ADD SLOAD SWAP1 POP SWAP3 SWAP2 POP POP JUMP JUMPDEST PUSH1 0x0 SWAP1 DUP2 MSTORE PUSH1 0x1 SWAP2 SWAP1 SWAP2 ADD PUSH1 0x20 MSTORE PUSH1 0x40 SWAP1 KECCAK256 SLOAD ISZERO ISZERO SWAP1 JUMP JUMPDEST PUSH1 0x0 DUP2 DUP2 MSTORE PUSH1 0x1 DUP4 ADD PUSH1 0x20 MSTORE PUSH1 0x40 DUP2 KECCAK256 SLOAD DUP1 ISZERO PUSH2 0x1E82 JUMPI DUP4 SLOAD PUSH1 0x0 NOT DUP1 DUP4 ADD SWAP2 SWAP1 DUP2 ADD SWAP1 PUSH1 0x0 SWAP1 DUP8 SWAP1 DUP4 SWAP1 DUP2 LT PUSH2 0x1DF9 JUMPI INVALID JUMPDEST SWAP1 PUSH1 0x0 MSTORE PUSH1 0x20 PUSH1 0x0 KECCAK256 ADD SLOAD SWAP1 POP DUP1 DUP8 PUSH1 0x0 ADD DUP5 DUP2 SLOAD DUP2 LT PUSH2 0x1E16 JUMPI INVALID JUMPDEST PUSH1 0x0 SWAP2 DUP3 MSTORE PUSH1 0x20 DUP1 DUP4 KECCAK256 SWAP1 SWAP2 ADD SWAP3 SWAP1 SWAP3 SSTORE DUP3 DUP2 MSTORE PUSH1 0x1 DUP10 DUP2 ADD SWAP1 SWAP3 MSTORE PUSH1 0x40 SWAP1 KECCAK256 SWAP1 DUP5 ADD SWAP1 SSTORE DUP7 SLOAD DUP8 SWAP1 DUP1 PUSH2 0x1E46 JUMPI INVALID JUMPDEST PUSH1 0x1 SWAP1 SUB DUP2 DUP2 SWAP1 PUSH1 0x0 MSTORE PUSH1 0x20 PUSH1 0x0 KECCAK256 ADD PUSH1 0x0 SWAP1 SSTORE SWAP1 SSTORE DUP7 PUSH1 0x1 ADD PUSH1 0x0 DUP8 DUP2 MSTORE PUSH1 0x20 ADD SWAP1 DUP2 MSTORE PUSH1 0x20 ADD PUSH1 0x0 KECCAK256 PUSH1 0x0 SWAP1 SSTORE PUSH1 0x1 SWAP5 POP POP POP POP POP PUSH2 0x462 JUMP JUMPDEST PUSH1 0x0 SWAP2 POP POP PUSH2 0x462 JUMP JUMPDEST DUP3 DUP1 SLOAD PUSH1 0x1 DUP2 PUSH1 0x1 AND ISZERO PUSH2 0x100 MUL SUB AND PUSH1 0x2 SWAP1 DIV SWAP1 PUSH1 0x0 MSTORE PUSH1 0x20 PUSH1 0x0 KECCAK256 SWAP1 PUSH1 0x1F ADD PUSH1 0x20 SWAP1 DIV DUP2 ADD SWAP3 DUP3 PUSH1 0x1F LT PUSH2 0x1ECD JUMPI DUP1 MLOAD PUSH1 0xFF NOT AND DUP4 DUP1 ADD OR DUP6 SSTORE PUSH2 0x1EFA JUMP JUMPDEST DUP3 DUP1 ADD PUSH1 0x1 ADD DUP6 SSTORE DUP3 ISZERO PUSH2 0x1EFA JUMPI SWAP2 DUP3 ADD JUMPDEST DUP3 DUP2 GT ISZERO PUSH2 0x1EFA JUMPI DUP3 MLOAD DUP3 SSTORE SWAP2 PUSH1 0x20 ADD SWAP2 SWAP1 PUSH1 0x1 ADD SWAP1 PUSH2 0x1EDF JUMP JUMPDEST POP PUSH2 0x1F06 SWAP3 SWAP2 POP PUSH2 0x1F4A JUMP JUMPDEST POP SWAP1 JUMP JUMPDEST POP DUP1 SLOAD PUSH1 0x1 DUP2 PUSH1 0x1 AND ISZERO PUSH2 0x100 MUL SUB AND PUSH1 0x2 SWAP1 DIV PUSH1 0x0 DUP3 SSTORE DUP1 PUSH1 0x1F LT PUSH2 0x1F30 JUMPI POP PUSH2 0x9B0 JUMP JUMPDEST PUSH1 0x1F ADD PUSH1 0x20 SWAP1 DIV SWAP1 PUSH1 0x0 MSTORE PUSH1 0x20 PUSH1 0x0 KECCAK256 SWAP1 DUP2 ADD SWAP1 PUSH2 0x9B0 SWAP2 SWAP1 JUMPDEST JUMPDEST DUP1 DUP3 GT ISZERO PUSH2 0x1F06 JUMPI PUSH1 0x0 DUP2 SSTORE PUSH1 0x1 ADD PUSH2 0x1F4B JUMP JUMPDEST DUP1 CALLDATALOAD PUSH1 0x1 PUSH1 0x1 PUSH1 0xA0 SHL SUB DUP2 AND DUP2 EQ PUSH2 0x462 JUMPI PUSH1 0x0 DUP1 REVERT JUMPDEST PUSH1 0x0 DUP3 PUSH1 0x1F DUP4 ADD SLT PUSH2 0x1F86 JUMPI DUP1 DUP2 REVERT JUMPDEST DUP2 CALLDATALOAD PUSH2 0x1F99 PUSH2 0x1F94 DUP3 PUSH2 0x2F3B JUMP JUMPDEST PUSH2 0x2F15 JUMP JUMPDEST DUP2 DUP2 MSTORE SWAP2 POP PUSH1 0x20 DUP1 DUP4 ADD SWAP1 DUP5 DUP2 ADD DUP2 DUP5 MUL DUP7 ADD DUP3 ADD DUP8 LT ISZERO PUSH2 0x1FBA JUMPI PUSH1 0x0 DUP1 REVERT JUMPDEST PUSH1 0x0 JUMPDEST DUP5 DUP2 LT ISZERO PUSH2 0x1FD9 JUMPI DUP2 CALLDATALOAD DUP5 MSTORE SWAP3 DUP3 ADD SWAP3 SWAP1 DUP3 ADD SWAP1 PUSH1 0x1 ADD PUSH2 0x1FBD JUMP JUMPDEST POP POP POP POP POP SWAP3 SWAP2 POP POP JUMP JUMPDEST PUSH1 0x0 DUP3 PUSH1 0x1F DUP4 ADD SLT PUSH2 0x1FF4 JUMPI DUP1 DUP2 REVERT JUMPDEST DUP2 CALLDATALOAD PUSH1 0x1 PUSH1 0x1 PUSH1 0x40 SHL SUB DUP2 GT ISZERO PUSH2 0x2009 JUMPI DUP2 DUP3 REVERT JUMPDEST PUSH2 0x201C PUSH1 0x1F DUP3 ADD PUSH1 0x1F NOT AND PUSH1 0x20 ADD PUSH2 0x2F15 JUMP JUMPDEST SWAP2 POP DUP1 DUP3 MSTORE DUP4 PUSH1 0x20 DUP3 DUP6 ADD ADD GT ISZERO PUSH2 0x2033 JUMPI PUSH1 0x0 DUP1 REVERT JUMPDEST DUP1 PUSH1 0x20 DUP5 ADD PUSH1 0x20 DUP5 ADD CALLDATACOPY PUSH1 0x0 SWAP1 DUP3 ADD PUSH1 0x20 ADD MSTORE SWAP3 SWAP2 POP POP JUMP JUMPDEST PUSH1 0x0 PUSH1 0x20 DUP3 DUP5 SUB SLT ISZERO PUSH2 0x205D JUMPI DUP1 DUP2 REVERT JUMPDEST PUSH2 0xB75 DUP4 DUP4 PUSH2 0x1F5F JUMP JUMPDEST PUSH1 0x0 DUP1 PUSH1 0x40 DUP4 DUP6 SUB SLT ISZERO PUSH2 0x2079 JUMPI DUP1 DUP2 REVERT JUMPDEST PUSH2 0x2083 DUP5 DUP5 PUSH2 0x1F5F JUMP JUMPDEST SWAP2 POP PUSH2 0x2092 DUP5 PUSH1 0x20 DUP6 ADD PUSH2 0x1F5F JUMP JUMPDEST SWAP1 POP SWAP3 POP SWAP3 SWAP1 POP JUMP JUMPDEST PUSH1 0x0 DUP1 PUSH1 0x0 DUP1 PUSH1 0x0 PUSH1 0xA0 DUP7 DUP9 SUB SLT ISZERO PUSH2 0x20B2 JUMPI DUP1 DUP2 REVERT JUMPDEST DUP6 CALLDATALOAD PUSH2 0x20BD DUP2 PUSH2 0x3034 JUMP JUMPDEST SWAP5 POP PUSH1 0x20 DUP7 ADD CALLDATALOAD PUSH2 0x20CD DUP2 PUSH2 0x3034 JUMP JUMPDEST SWAP4 POP PUSH1 0x40 DUP7 ADD CALLDATALOAD PUSH1 0x1 PUSH1 0x1 PUSH1 0x40 SHL SUB DUP1 DUP3 GT ISZERO PUSH2 0x20E8 JUMPI DUP3 DUP4 REVERT JUMPDEST PUSH2 0x20F4 DUP10 DUP4 DUP11 ADD PUSH2 0x1F76 JUMP JUMPDEST SWAP5 POP PUSH1 0x60 DUP9 ADD CALLDATALOAD SWAP2 POP DUP1 DUP3 GT ISZERO PUSH2 0x2109 JUMPI DUP3 DUP4 REVERT JUMPDEST PUSH2 0x2115 DUP10 DUP4 DUP11 ADD PUSH2 0x1F76 JUMP JUMPDEST SWAP4 POP PUSH1 0x80 DUP9 ADD CALLDATALOAD SWAP2 POP DUP1 DUP3 GT ISZERO PUSH2 0x212A JUMPI DUP3 DUP4 REVERT JUMPDEST POP PUSH2 0x2137 DUP9 DUP3 DUP10 ADD PUSH2 0x1FE4 JUMP JUMPDEST SWAP2 POP POP SWAP3 SWAP6 POP SWAP3 SWAP6 SWAP1 SWAP4 POP JUMP JUMPDEST PUSH1 0x0 DUP1 PUSH1 0x0 DUP1 PUSH1 0x0 PUSH1 0xA0 DUP7 DUP9 SUB SLT ISZERO PUSH2 0x215B JUMPI DUP1 DUP2 REVERT JUMPDEST PUSH2 0x2165 DUP8 DUP8 PUSH2 0x1F5F JUMP JUMPDEST SWAP5 POP PUSH2 0x2174 DUP8 PUSH1 0x20 DUP9 ADD PUSH2 0x1F5F JUMP JUMPDEST SWAP4 POP PUSH1 0x40 DUP7 ADD CALLDATALOAD SWAP3 POP PUSH1 0x60 DUP7 ADD CALLDATALOAD SWAP2 POP PUSH1 0x80 DUP7 ADD CALLDATALOAD PUSH1 0x1 PUSH1 0x1 PUSH1 0x40 SHL SUB DUP2 GT ISZERO PUSH2 0x219C JUMPI DUP2 DUP3 REVERT JUMPDEST PUSH2 0x2137 DUP9 DUP3 DUP10 ADD PUSH2 0x1FE4 JUMP JUMPDEST PUSH1 0x0 DUP1 PUSH1 0x0 PUSH1 0x60 DUP5 DUP7 SUB SLT ISZERO PUSH2 0x21BC JUMPI DUP3 DUP4 REVERT JUMPDEST DUP4 CALLDATALOAD PUSH2 0x21C7 DUP2 PUSH2 0x3034 JUMP JUMPDEST SWAP3 POP PUSH1 0x20 DUP5 ADD CALLDATALOAD PUSH1 0x1 PUSH1 0x1 PUSH1 0x40 SHL SUB DUP1 DUP3 GT ISZERO PUSH2 0x21E2 JUMPI DUP4 DUP5 REVERT JUMPDEST PUSH2 0x21EE DUP8 DUP4 DUP9 ADD PUSH2 0x1F76 JUMP JUMPDEST SWAP4 POP PUSH1 0x40 DUP7 ADD CALLDATALOAD SWAP2 POP DUP1 DUP3 GT ISZERO PUSH2 0x2203 JUMPI DUP3 DUP4 REVERT JUMPDEST POP PUSH2 0x2210 DUP7 DUP3 DUP8 ADD PUSH2 0x1F76 JUMP JUMPDEST SWAP2 POP POP SWAP3 POP SWAP3 POP SWAP3 JUMP JUMPDEST PUSH1 0x0 DUP1 PUSH1 0x0 DUP1 PUSH1 0x0 PUSH1 0xA0 DUP7 DUP9 SUB SLT ISZERO PUSH2 0x2231 JUMPI DUP1 DUP2 REVERT JUMPDEST PUSH2 0x223B DUP8 DUP8 PUSH2 0x1F5F JUMP JUMPDEST SWAP5 POP PUSH1 0x20 DUP1 DUP8 ADD CALLDATALOAD PUSH1 0x1 PUSH1 0x1 PUSH1 0x40 SHL SUB DUP1 DUP3 GT ISZERO PUSH2 0x2257 JUMPI DUP4 DUP5 REVERT JUMPDEST PUSH2 0x2263 DUP11 DUP4 DUP12 ADD PUSH2 0x1F76 JUMP JUMPDEST SWAP7 POP PUSH1 0x40 DUP10 ADD CALLDATALOAD SWAP2 POP DUP1 DUP3 GT ISZERO PUSH2 0x2278 JUMPI DUP4 DUP5 REVERT JUMPDEST PUSH2 0x2284 DUP11 DUP4 DUP12 ADD PUSH2 0x1F76 JUMP JUMPDEST SWAP6 POP PUSH1 0x60 DUP10 ADD CALLDATALOAD SWAP2 POP DUP1 DUP3 GT ISZERO PUSH2 0x2299 JUMPI DUP4 DUP5 REVERT JUMPDEST DUP2 DUP10 ADD SWAP2 POP DUP10 PUSH1 0x1F DUP4 ADD SLT PUSH2 0x22AC JUMPI DUP4 DUP5 REVERT JUMPDEST DUP2 CALLDATALOAD PUSH2 0x22BA PUSH2 0x1F94 DUP3 PUSH2 0x2F3B JUMP JUMPDEST DUP2 DUP2 MSTORE DUP5 DUP2 ADD SWAP1 DUP5 DUP7 ADD DUP8 JUMPDEST DUP5 DUP2 LT ISZERO PUSH2 0x22EF JUMPI PUSH2 0x22DD DUP16 DUP10 DUP5 CALLDATALOAD DUP11 ADD ADD PUSH2 0x1FE4 JUMP JUMPDEST DUP5 MSTORE SWAP3 DUP8 ADD SWAP3 SWAP1 DUP8 ADD SWAP1 PUSH1 0x1 ADD PUSH2 0x22C6 JUMP JUMPDEST POP SWAP1 SWAP8 POP POP POP POP PUSH1 0x80 DUP10 ADD CALLDATALOAD SWAP3 POP DUP1 DUP4 GT ISZERO PUSH2 0x2309 JUMPI DUP4 DUP5 REVERT JUMPDEST POP POP PUSH2 0x2137 DUP9 DUP3 DUP10 ADD PUSH2 0x1FE4 JUMP JUMPDEST PUSH1 0x0 DUP1 PUSH1 0x40 DUP4 DUP6 SUB SLT ISZERO PUSH2 0x2329 JUMPI DUP2 DUP3 REVERT JUMPDEST PUSH2 0x2333 DUP5 DUP5 PUSH2 0x1F5F JUMP JUMPDEST SWAP2 POP PUSH1 0x20 DUP4 ADD CALLDATALOAD DUP1 ISZERO ISZERO DUP2 EQ PUSH2 0x2347 JUMPI DUP2 DUP3 REVERT JUMPDEST DUP1 SWAP2 POP POP SWAP3 POP SWAP3 SWAP1 POP JUMP JUMPDEST PUSH1 0x0 DUP1 PUSH1 0x40 DUP4 DUP6 SUB SLT ISZERO PUSH2 0x2364 JUMPI DUP2 DUP3 REVERT JUMPDEST PUSH2 0x236E DUP5 DUP5 PUSH2 0x1F5F JUMP JUMPDEST SWAP5 PUSH1 0x20 SWAP4 SWAP1 SWAP4 ADD CALLDATALOAD SWAP4 POP POP POP JUMP JUMPDEST PUSH1 0x0 DUP1 PUSH1 0x0 PUSH1 0x60 DUP5 DUP7 SUB SLT ISZERO PUSH2 0x2390 JUMPI DUP1 DUP2 REVERT JUMPDEST PUSH2 0x239A DUP6 DUP6 PUSH2 0x1F5F JUMP JUMPDEST SWAP6 PUSH1 0x20 DUP6 ADD CALLDATALOAD SWAP6 POP PUSH1 0x40 SWAP1 SWAP5 ADD CALLDATALOAD SWAP4 SWAP3 POP POP POP JUMP JUMPDEST PUSH1 0x0 DUP1 PUSH1 0x40 DUP4 DUP6 SUB SLT ISZERO PUSH2 0x23C1 JUMPI DUP2 DUP3 REVERT JUMPDEST DUP3 CALLDATALOAD PUSH1 0x1 PUSH1 0x1 PUSH1 0x40 SHL SUB DUP1 DUP3 GT ISZERO PUSH2 0x23D7 JUMPI DUP4 DUP5 REVERT JUMPDEST DUP2 DUP6 ADD SWAP2 POP DUP6 PUSH1 0x1F DUP4 ADD SLT PUSH2 0x23EA JUMPI DUP4 DUP5 REVERT JUMPDEST DUP2 CALLDATALOAD PUSH2 0x23F8 PUSH2 0x1F94 DUP3 PUSH2 0x2F3B JUMP JUMPDEST DUP1 DUP3 DUP3 MSTORE PUSH1 0x20 DUP1 DUP4 ADD SWAP3 POP DUP1 DUP7 ADD DUP11 DUP3 DUP4 DUP8 MUL DUP10 ADD ADD GT ISZERO PUSH2 0x2418 JUMPI DUP9 DUP10 REVERT JUMPDEST DUP9 SWAP7 POP JUMPDEST DUP5 DUP8 LT ISZERO PUSH2 0x2442 JUMPI PUSH2 0x242E DUP12 DUP3 PUSH2 0x1F5F JUMP JUMPDEST DUP5 MSTORE PUSH1 0x1 SWAP7 SWAP1 SWAP7 ADD SWAP6 SWAP3 DUP2 ADD SWAP3 DUP2 ADD PUSH2 0x241C JUMP JUMPDEST POP SWAP1 SWAP7 POP DUP8 ADD CALLDATALOAD SWAP4 POP POP POP DUP1 DUP3 GT ISZERO PUSH2 0x2459 JUMPI DUP3 DUP4 REVERT JUMPDEST POP PUSH2 0x2466 DUP6 DUP3 DUP7 ADD PUSH2 0x1F76 JUMP JUMPDEST SWAP2 POP POP SWAP3 POP SWAP3 SWAP1 POP JUMP JUMPDEST PUSH1 0x0 PUSH1 0x20 DUP3 DUP5 SUB SLT ISZERO PUSH2 0x2481 JUMPI DUP1 DUP2 REVERT JUMPDEST POP CALLDATALOAD SWAP2 SWAP1 POP JUMP JUMPDEST PUSH1 0x0 DUP1 PUSH1 0x40 DUP4 DUP6 SUB SLT ISZERO PUSH2 0x249A JUMPI DUP2 DUP3 REVERT JUMPDEST DUP3 CALLDATALOAD SWAP2 POP PUSH1 0x20 DUP4 ADD CALLDATALOAD PUSH2 0x2347 DUP2 PUSH2 0x3034 JUMP JUMPDEST PUSH1 0x0 DUP1 PUSH1 0x40 DUP4 DUP6 SUB SLT ISZERO PUSH2 0x24BE JUMPI DUP2 DUP3 REVERT JUMPDEST POP POP DUP1 CALLDATALOAD SWAP3 PUSH1 0x20 SWAP1 SWAP2 ADD CALLDATALOAD SWAP2 POP JUMP JUMPDEST PUSH1 0x0 PUSH1 0x20 DUP3 DUP5 SUB SLT ISZERO PUSH2 0x24DE JUMPI DUP1 DUP2 REVERT JUMPDEST DUP2 CALLDATALOAD PUSH2 0xB75 DUP2 PUSH2 0x3049 JUMP JUMPDEST PUSH1 0x0 PUSH1 0x20 DUP3 DUP5 SUB SLT ISZERO PUSH2 0x24FA JUMPI DUP1 DUP2 REVERT JUMPDEST DUP2 MLOAD PUSH2 0xB75 DUP2 PUSH2 0x3049 JUMP JUMPDEST PUSH1 0x0 PUSH1 0x20 DUP3 DUP5 SUB SLT ISZERO PUSH2 0x2516 JUMPI DUP1 DUP2 REVERT JUMPDEST DUP2 CALLDATALOAD PUSH1 0x1 PUSH1 0x1 PUSH1 0x40 SHL SUB DUP2 GT ISZERO PUSH2 0x252B JUMPI DUP2 DUP3 REVERT JUMPDEST PUSH2 0x2537 DUP5 DUP3 DUP6 ADD PUSH2 0x1FE4 JUMP JUMPDEST SWAP5 SWAP4 POP POP POP POP JUMP JUMPDEST PUSH1 0x0 DUP1 PUSH1 0x0 PUSH1 0x60 DUP5 DUP7 SUB SLT ISZERO PUSH2 0x2553 JUMPI DUP1 DUP2 REVERT JUMPDEST DUP4 CALLDATALOAD SWAP3 POP PUSH1 0x20 DUP5 ADD CALLDATALOAD PUSH1 0x1 PUSH1 0x1 PUSH1 0x40 SHL SUB DUP1 DUP3 GT ISZERO PUSH2 0x2570 JUMPI DUP3 DUP4 REVERT JUMPDEST PUSH2 0x257C DUP8 DUP4 DUP9 ADD PUSH2 0x1FE4 JUMP JUMPDEST SWAP4 POP PUSH1 0x40 DUP7 ADD CALLDATALOAD SWAP2 POP DUP1 DUP3 GT ISZERO PUSH2 0x2591 JUMPI DUP3 DUP4 REVERT JUMPDEST POP PUSH2 0x2210 DUP7 DUP3 DUP8 ADD PUSH2 0x1FE4 JUMP JUMPDEST PUSH1 0x0 DUP2 MLOAD DUP1 DUP5 MSTORE PUSH1 0x20 DUP1 DUP6 ADD SWAP5 POP DUP1 DUP5 ADD DUP4 JUMPDEST DUP4 DUP2 LT ISZERO PUSH2 0x25CD JUMPI DUP2 MLOAD DUP8 MSTORE SWAP6 DUP3 ADD SWAP6 SWAP1 DUP3 ADD SWAP1 PUSH1 0x1 ADD PUSH2 0x25B1 JUMP JUMPDEST POP SWAP5 SWAP6 SWAP5 POP POP POP POP POP JUMP JUMPDEST PUSH1 0x0 DUP2 MLOAD DUP1 DUP5 MSTORE PUSH2 0x25F0 DUP2 PUSH1 0x20 DUP7 ADD PUSH1 0x20 DUP7 ADD PUSH2 0x2F5A JUMP JUMPDEST PUSH1 0x1F ADD PUSH1 0x1F NOT AND SWAP3 SWAP1 SWAP3 ADD PUSH1 0x20 ADD SWAP3 SWAP2 POP POP JUMP JUMPDEST PUSH1 0x0 DUP1 DUP5 SLOAD PUSH1 0x1 DUP1 DUP3 AND PUSH1 0x0 DUP2 EQ PUSH2 0x2623 JUMPI PUSH1 0x1 DUP2 EQ PUSH2 0x263A JUMPI PUSH2 0x2669 JUMP JUMPDEST PUSH1 0xFF NOT DUP4 AND DUP7 MSTORE PUSH1 0x2 DUP4 DIV PUSH1 0x7F AND DUP7 ADD SWAP4 POP PUSH2 0x2669 JUMP JUMPDEST PUSH1 0x2 DUP4 DIV DUP9 DUP7 MSTORE PUSH1 0x20 DUP1 DUP8 KECCAK256 DUP8 JUMPDEST DUP4 DUP2 LT ISZERO PUSH2 0x2661 JUMPI DUP2 SLOAD DUP11 DUP3 ADD MSTORE SWAP1 DUP6 ADD SWAP1 DUP3 ADD PUSH2 0x2648 JUMP JUMPDEST POP POP POP DUP7 ADD SWAP4 POP JUMPDEST POP POP POP DUP4 MLOAD PUSH2 0x267C DUP2 DUP4 PUSH1 0x20 DUP9 ADD PUSH2 0x2F5A JUMP JUMPDEST ADD SWAP5 SWAP4 POP POP POP POP JUMP JUMPDEST PUSH1 0x1 PUSH1 0x1 PUSH1 0xA0 SHL SUB SWAP2 SWAP1 SWAP2 AND DUP2 MSTORE PUSH1 0x20 ADD SWAP1 JUMP JUMPDEST PUSH1 0x1 PUSH1 0x1 PUSH1 0xA0 SHL SUB DUP7 DUP2 AND DUP3 MSTORE DUP6 AND PUSH1 0x20 DUP3 ADD MSTORE PUSH1 0xA0 PUSH1 0x40 DUP3 ADD DUP2 SWAP1 MSTORE PUSH1 0x0 SWAP1 PUSH2 0x26C5 SWAP1 DUP4 ADD DUP7 PUSH2 0x259E JUMP JUMPDEST DUP3 DUP2 SUB PUSH1 0x60 DUP5 ADD MSTORE PUSH2 0x26D7 DUP2 DUP7 PUSH2 0x259E JUMP JUMPDEST SWAP1 POP DUP3 DUP2 SUB PUSH1 0x80 DUP5 ADD MSTORE PUSH2 0x26EB DUP2 DUP6 PUSH2 0x25D8 JUMP JUMPDEST SWAP9 SWAP8 POP POP POP POP POP POP POP POP JUMP JUMPDEST PUSH1 0x1 PUSH1 0x1 PUSH1 0xA0 SHL SUB DUP7 DUP2 AND DUP3 MSTORE DUP6 AND PUSH1 0x20 DUP3 ADD MSTORE PUSH1 0x40 DUP2 ADD DUP5 SWAP1 MSTORE PUSH1 0x60 DUP2 ADD DUP4 SWAP1 MSTORE PUSH1 0xA0 PUSH1 0x80 DUP3 ADD DUP2 SWAP1 MSTORE PUSH1 0x0 SWAP1 PUSH2 0x2731 SWAP1 DUP4 ADD DUP5 PUSH2 0x25D8 JUMP JUMPDEST SWAP8 SWAP7 POP POP POP POP POP POP POP JUMP JUMPDEST PUSH1 0x0 PUSH1 0x20 DUP3 MSTORE PUSH2 0xB75 PUSH1 0x20 DUP4 ADD DUP5 PUSH2 0x259E JUMP JUMPDEST PUSH1 0x0 PUSH1 0x40 DUP3 MSTORE PUSH2 0x2762 PUSH1 0x40 DUP4 ADD DUP6 PUSH2 0x259E JUMP JUMPDEST DUP3 DUP2 SUB PUSH1 0x20 DUP5 ADD MSTORE PUSH2 0x2774 DUP2 DUP6 PUSH2 0x259E JUMP JUMPDEST SWAP6 SWAP5 POP POP POP POP POP JUMP JUMPDEST SWAP1 ISZERO ISZERO DUP2 MSTORE PUSH1 0x20 ADD SWAP1 JUMP JUMPDEST SWAP1 DUP2 MSTORE PUSH1 0x20 ADD SWAP1 JUMP JUMPDEST PUSH1 0x0 PUSH1 0x20 DUP3 MSTORE PUSH2 0xB75 PUSH1 0x20 DUP4 ADD DUP5 PUSH2 0x25D8 JUMP JUMPDEST PUSH1 0x20 DUP1 DUP3 MSTORE PUSH1 0x34 SWAP1 DUP3 ADD MSTORE PUSH32 0x455243313135353A207472616E7366657220746F206E6F6E2045524331313535 PUSH1 0x40 DUP3 ADD MSTORE PUSH20 0x2932B1B2B4BB32B91034B6B83632B6B2B73A32B9 PUSH1 0x61 SHL PUSH1 0x60 DUP3 ADD MSTORE PUSH1 0x80 ADD SWAP1 JUMP JUMPDEST PUSH1 0x20 DUP1 DUP3 MSTORE PUSH1 0x22 SWAP1 DUP3 ADD MSTORE PUSH32 0x456E756D657261626C655365743A20696E646578206F7574206F6620626F756E PUSH1 0x40 DUP3 ADD MSTORE PUSH2 0x6473 PUSH1 0xF0 SHL PUSH1 0x60 DUP3 ADD MSTORE PUSH1 0x80 ADD SWAP1 JUMP JUMPDEST PUSH1 0x20 DUP1 DUP3 MSTORE PUSH1 0x28 SWAP1 DUP3 ADD MSTORE PUSH32 0x455243313135353A204552433131353552656365697665722072656A65637465 PUSH1 0x40 DUP3 ADD MSTORE PUSH8 0x6420746F6B656E73 PUSH1 0xC0 SHL PUSH1 0x60 DUP3 ADD MSTORE PUSH1 0x80 ADD SWAP1 JUMP JUMPDEST PUSH1 0x20 DUP1 DUP3 MSTORE PUSH1 0x2F SWAP1 DUP3 ADD MSTORE PUSH32 0x416363657373436F6E74726F6C3A2073656E646572206D75737420626520616E PUSH1 0x40 DUP3 ADD MSTORE PUSH15 0x818591B5A5B881D1BC819DC985B9D PUSH1 0x8A SHL PUSH1 0x60 DUP3 ADD MSTORE PUSH1 0x80 ADD SWAP1 JUMP JUMPDEST PUSH1 0x20 DUP1 DUP3 MSTORE PUSH1 0x14 SWAP1 DUP3 ADD MSTORE PUSH20 0x14185D5CD8589B194E881B9BDD081C185D5CD959 PUSH1 0x62 SHL PUSH1 0x40 DUP3 ADD MSTORE PUSH1 0x60 ADD SWAP1 JUMP JUMPDEST PUSH1 0x20 DUP1 DUP3 MSTORE PUSH1 0x2B SWAP1 DUP3 ADD MSTORE PUSH32 0x455243313135353A2062616C616E636520717565727920666F7220746865207A PUSH1 0x40 DUP3 ADD MSTORE PUSH11 0x65726F2061646472657373 PUSH1 0xA8 SHL PUSH1 0x60 DUP3 ADD MSTORE PUSH1 0x80 ADD SWAP1 JUMP JUMPDEST PUSH1 0x20 DUP1 DUP3 MSTORE PUSH1 0x31 SWAP1 DUP3 ADD MSTORE PUSH32 0x455243313135353A2062617463682062616C616E636520717565727920666F72 PUSH1 0x40 DUP3 ADD MSTORE PUSH17 0x20746865207A65726F2061646472657373 PUSH1 0x78 SHL PUSH1 0x60 DUP3 ADD MSTORE PUSH1 0x80 ADD SWAP1 JUMP JUMPDEST PUSH1 0x20 DUP1 DUP3 MSTORE PUSH1 0x26 SWAP1 DUP3 ADD MSTORE PUSH32 0x4F776E61626C653A206E6577206F776E657220697320746865207A65726F2061 PUSH1 0x40 DUP3 ADD MSTORE PUSH6 0x646472657373 PUSH1 0xD0 SHL PUSH1 0x60 DUP3 ADD MSTORE PUSH1 0x80 ADD SWAP1 JUMP JUMPDEST PUSH1 0x20 DUP1 DUP3 MSTORE PUSH1 0x1B SWAP1 DUP3 ADD MSTORE PUSH32 0x536166654D6174683A206164646974696F6E206F766572666C6F770000000000 PUSH1 0x40 DUP3 ADD MSTORE PUSH1 0x60 ADD SWAP1 JUMP JUMPDEST PUSH1 0x20 DUP1 DUP3 MSTORE PUSH1 0x2C SWAP1 DUP3 ADD MSTORE PUSH32 0x455243313135355061757361626C653A20746F6B656E207472616E7366657220 PUSH1 0x40 DUP3 ADD MSTORE PUSH12 0x1DDA1A5B19481C185D5CD959 PUSH1 0xA2 SHL PUSH1 0x60 DUP3 ADD MSTORE PUSH1 0x80 ADD SWAP1 JUMP JUMPDEST PUSH1 0x20 DUP1 DUP3 MSTORE PUSH1 0x29 SWAP1 DUP3 ADD MSTORE PUSH32 0x455243313135353A2063616C6C6572206973206E6F74206F776E6572206E6F72 PUSH1 0x40 DUP3 ADD MSTORE PUSH9 0x8185C1C1C9BDD9959 PUSH1 0xBA SHL PUSH1 0x60 DUP3 ADD MSTORE PUSH1 0x80 ADD SWAP1 JUMP JUMPDEST PUSH1 0x20 DUP1 DUP3 MSTORE PUSH1 0x30 SWAP1 DUP3 ADD MSTORE PUSH32 0x416363657373436F6E74726F6C3A2073656E646572206D75737420626520616E PUSH1 0x40 DUP3 ADD MSTORE PUSH16 0x2061646D696E20746F207265766F6B65 PUSH1 0x80 SHL PUSH1 0x60 DUP3 ADD MSTORE PUSH1 0x80 ADD SWAP1 JUMP JUMPDEST PUSH1 0x20 DUP1 DUP3 MSTORE PUSH1 0x10 SWAP1 DUP3 ADD MSTORE PUSH16 0x14185D5CD8589B194E881C185D5CD959 PUSH1 0x82 SHL PUSH1 0x40 DUP3 ADD MSTORE PUSH1 0x60 ADD SWAP1 JUMP JUMPDEST PUSH1 0x20 DUP1 DUP3 MSTORE PUSH1 0x25 SWAP1 DUP3 ADD MSTORE PUSH32 0x455243313135353A207472616E7366657220746F20746865207A65726F206164 PUSH1 0x40 DUP3 ADD MSTORE PUSH5 0x6472657373 PUSH1 0xD8 SHL PUSH1 0x60 DUP3 ADD MSTORE PUSH1 0x80 ADD SWAP1 JUMP JUMPDEST PUSH1 0x20 DUP1 DUP3 MSTORE PUSH1 0x32 SWAP1 DUP3 ADD MSTORE PUSH32 0x455243313135353A207472616E736665722063616C6C6572206973206E6F7420 PUSH1 0x40 DUP3 ADD MSTORE PUSH18 0x1BDDDB995C881B9BDC88185C1C1C9BDD9959 PUSH1 0x72 SHL PUSH1 0x60 DUP3 ADD MSTORE PUSH1 0x80 ADD SWAP1 JUMP JUMPDEST PUSH1 0x20 DUP1 DUP3 MSTORE PUSH1 0x23 SWAP1 DUP3 ADD MSTORE PUSH32 0x455243313135353A206275726E2066726F6D20746865207A65726F2061646472 PUSH1 0x40 DUP3 ADD MSTORE PUSH3 0x657373 PUSH1 0xE8 SHL PUSH1 0x60 DUP3 ADD MSTORE PUSH1 0x80 ADD SWAP1 JUMP JUMPDEST PUSH1 0x20 DUP1 DUP3 MSTORE PUSH1 0x38 SWAP1 DUP3 ADD MSTORE PUSH32 0x455243313135355072657365744D696E7465725061757365723A206D75737420 PUSH1 0x40 DUP3 ADD MSTORE PUSH32 0x68617665206D696E74657220726F6C6520746F206D696E740000000000000000 PUSH1 0x60 DUP3 ADD MSTORE PUSH1 0x80 ADD SWAP1 JUMP JUMPDEST PUSH1 0x20 DUP1 DUP3 MSTORE DUP2 DUP2 ADD MSTORE PUSH32 0x4F776E61626C653A2063616C6C6572206973206E6F7420746865206F776E6572 PUSH1 0x40 DUP3 ADD MSTORE PUSH1 0x60 ADD SWAP1 JUMP JUMPDEST PUSH1 0x20 DUP1 DUP3 MSTORE PUSH1 0x30 SWAP1 DUP3 ADD MSTORE PUSH32 0x455243313135354D657461646174613A2055524920717565727920666F72206E PUSH1 0x40 DUP3 ADD MSTORE PUSH16 0x37B732BC34B9BA32B73A103A37B5B2B7 PUSH1 0x81 SHL PUSH1 0x60 DUP3 ADD MSTORE PUSH1 0x80 ADD SWAP1 JUMP JUMPDEST PUSH1 0x20 DUP1 DUP3 MSTORE PUSH1 0x3B SWAP1 DUP3 ADD MSTORE PUSH32 0x455243313135355072657365744D696E7465725061757365723A206D75737420 PUSH1 0x40 DUP3 ADD MSTORE PUSH32 0x686176652070617573657220726F6C6520746F20756E70617573650000000000 PUSH1 0x60 DUP3 ADD MSTORE PUSH1 0x80 ADD SWAP1 JUMP JUMPDEST PUSH1 0x20 DUP1 DUP3 MSTORE PUSH1 0x39 SWAP1 DUP3 ADD MSTORE PUSH32 0x455243313135355072657365744D696E7465725061757365723A206D75737420 PUSH1 0x40 DUP3 ADD MSTORE PUSH32 0x686176652070617573657220726F6C6520746F20706175736500000000000000 PUSH1 0x60 DUP3 ADD MSTORE PUSH1 0x80 ADD SWAP1 JUMP JUMPDEST PUSH1 0x20 DUP1 DUP3 MSTORE PUSH1 0x29 SWAP1 DUP3 ADD MSTORE PUSH32 0x455243313135353A2073657474696E6720617070726F76616C20737461747573 PUSH1 0x40 DUP3 ADD MSTORE PUSH9 0x103337B91039B2B633 PUSH1 0xB9 SHL PUSH1 0x60 DUP3 ADD MSTORE PUSH1 0x80 ADD SWAP1 JUMP JUMPDEST PUSH1 0x20 DUP1 DUP3 MSTORE PUSH1 0x29 SWAP1 DUP3 ADD MSTORE PUSH32 0x455243313135353A206163636F756E747320616E6420696473206C656E677468 PUSH1 0x40 DUP3 ADD MSTORE PUSH9 0x40DAD2E6DAC2E8C6D PUSH1 0xBB SHL PUSH1 0x60 DUP3 ADD MSTORE PUSH1 0x80 ADD SWAP1 JUMP JUMPDEST PUSH1 0x20 DUP1 DUP3 MSTORE PUSH1 0x28 SWAP1 DUP3 ADD MSTORE PUSH32 0x455243313135353A2069647320616E6420616D6F756E7473206C656E67746820 PUSH1 0x40 DUP3 ADD MSTORE PUSH8 0xDAD2E6DAC2E8C6D PUSH1 0xC3 SHL PUSH1 0x60 DUP3 ADD MSTORE PUSH1 0x80 ADD SWAP1 JUMP JUMPDEST PUSH1 0x20 DUP1 DUP3 MSTORE PUSH1 0x21 SWAP1 DUP3 ADD MSTORE PUSH32 0x455243313135353A206D696E7420746F20746865207A65726F20616464726573 PUSH1 0x40 DUP3 ADD MSTORE PUSH1 0x73 PUSH1 0xF8 SHL PUSH1 0x60 DUP3 ADD MSTORE PUSH1 0x80 ADD SWAP1 JUMP JUMPDEST PUSH1 0x20 DUP1 DUP3 MSTORE PUSH1 0x2F SWAP1 DUP3 ADD MSTORE PUSH32 0x416363657373436F6E74726F6C3A2063616E206F6E6C792072656E6F756E6365 PUSH1 0x40 DUP3 ADD MSTORE PUSH15 0x103937B632B9903337B91039B2B633 PUSH1 0x89 SHL PUSH1 0x60 DUP3 ADD MSTORE PUSH1 0x80 ADD SWAP1 JUMP JUMPDEST SWAP2 DUP3 MSTORE PUSH1 0x20 DUP3 ADD MSTORE PUSH1 0x40 ADD SWAP1 JUMP JUMPDEST PUSH1 0x40 MLOAD DUP2 DUP2 ADD PUSH1 0x1 PUSH1 0x1 PUSH1 0x40 SHL SUB DUP2 GT DUP3 DUP3 LT OR ISZERO PUSH2 0x2F33 JUMPI PUSH1 0x0 DUP1 REVERT JUMPDEST PUSH1 0x40 MSTORE SWAP2 SWAP1 POP JUMP JUMPDEST PUSH1 0x0 PUSH1 0x1 PUSH1 0x1 PUSH1 0x40 SHL SUB DUP3 GT ISZERO PUSH2 0x2F50 JUMPI DUP1 DUP2 REVERT JUMPDEST POP PUSH1 0x20 SWAP1 DUP2 MUL ADD SWAP1 JUMP JUMPDEST PUSH1 0x0 JUMPDEST DUP4 DUP2 LT ISZERO PUSH2 0x2F75 JUMPI DUP2 DUP2 ADD MLOAD DUP4 DUP3 ADD MSTORE PUSH1 0x20 ADD PUSH2 0x2F5D JUMP JUMPDEST DUP4 DUP2 GT ISZERO PUSH2 0x2F84 JUMPI PUSH1 0x0 DUP5 DUP5 ADD MSTORE JUMPDEST POP POP POP POP JUMP JUMPDEST PUSH1 0xE0 SHR SWAP1 JUMP JUMPDEST PUSH1 0x0 PUSH1 0x44 RETURNDATASIZE LT ISZERO PUSH2 0x2FA0 JUMPI PUSH2 0x9BA JUMP JUMPDEST PUSH1 0x4 DUP2 DUP3 RETURNDATACOPY PUSH4 0x8C379A0 PUSH2 0x2FB4 DUP3 MLOAD PUSH2 0x2F8A JUMP JUMPDEST EQ PUSH2 0x2FBE JUMPI PUSH2 0x9BA JUMP JUMPDEST PUSH1 0x40 MLOAD RETURNDATASIZE PUSH1 0x3 NOT ADD PUSH1 0x4 DUP3 RETURNDATACOPY DUP1 MLOAD RETURNDATASIZE PUSH1 0x1 PUSH1 0x1 PUSH1 0x40 SHL SUB DUP2 PUSH1 0x24 DUP5 ADD GT DUP2 DUP5 GT OR ISZERO PUSH2 0x2FED JUMPI POP POP POP POP PUSH2 0x9BA JUMP JUMPDEST DUP3 DUP5 ADD SWAP3 POP DUP3 MLOAD SWAP2 POP DUP1 DUP3 GT ISZERO PUSH2 0x3007 JUMPI POP POP POP POP PUSH2 0x9BA JUMP JUMPDEST POP RETURNDATASIZE DUP4 ADD PUSH1 0x20 DUP3 DUP5 ADD ADD GT ISZERO PUSH2 0x301F JUMPI POP POP POP PUSH2 0x9BA JUMP JUMPDEST PUSH1 0x1F ADD PUSH1 0x1F NOT AND DUP2 ADD PUSH1 0x20 ADD PUSH1 0x40 MSTORE SWAP2 POP POP SWAP1 JUMP JUMPDEST PUSH1 0x1 PUSH1 0x1 PUSH1 0xA0 SHL SUB DUP2 AND DUP2 EQ PUSH2 0x9B0 JUMPI PUSH1 0x0 DUP1 REVERT JUMPDEST PUSH1 0x1 PUSH1 0x1 PUSH1 0xE0 SHL SUB NOT DUP2 AND DUP2 EQ PUSH2 0x9B0 JUMPI PUSH1 0x0 DUP1 REVERT INVALID GASLIMIT MSTORE NUMBER BALANCE BALANCE CALLDATALOAD CALLDATALOAD GASPRICE KECCAK256 PUSH3 0x75726E KECCAK256 PUSH2 0x6D6F PUSH22 0x6E7420657863656564732062616C616E636545524331 BALANCE CALLDATALOAD CALLDATALOAD GASPRICE KECCAK256 PUSH10 0x6E73756666696369656E PUSH21 0x2062616C616E636520666F72207472616E73666572 LOG2 PUSH5 0x6970667358 0x22 SLT KECCAK256 0xE4 0x4D INVALID 0x5D DUP7 JUMPI SWAP6 0x21 SIGNEXTEND 0x1E 0xE5 PUSH15 0x1DDBF3A6B03351FB10AEFD8084CCD4 0x2F XOR LOG1 DUP6 0x29 PUSH5 0x736F6C6343 STOP MOD 0xC STOP CALLER "
		},
		"gasEstimates": {
			"creation": {
				"codeDepositCost": "2503000",
				"executionCost": "infinite",
				"totalCost": "infinite"
			},
			"external": {
				"DEFAULT_ADMIN_ROLE()": "273",
				"MINTER_ROLE()": "295",
				"PAUSER_ROLE()": "339",
				"balanceOf(address,uint256)": "infinite",
				"balanceOfBatch(address[],uint256[])": "infinite",
				"burn(address,uint256,uint256)": "infinite",
				"burnBatch(address,uint256[],uint256[])": "infinite",
				"getRoleAdmin(bytes32)": "1226",
				"getRoleMember(bytes32,uint256)": "infinite",
				"getRoleMemberCount(bytes32)": "infinite",
				"grantRole(bytes32,address)": "infinite",
				"hasRole(bytes32,address)": "infinite",
				"isApprovedForAll(address,address)": "infinite",
				"mint(uint256,string,bytes)": "infinite",
				"mintBatch(address,uint256[],uint256[],string[],bytes)": "infinite",
				"owner()": "1116",
				"pause()": "infinite",
				"paused()": "1153",
				"renounceOwnership()": "24268",
				"renounceRole(bytes32,address)": "infinite",
				"revokeRole(bytes32,address)": "infinite",
				"safeBatchTransferFrom(address,address,uint256[],uint256[],bytes)": "infinite",
				"safeTransferFrom(address,address,uint256,uint256,bytes)": "infinite",
				"setApprovalForAll(address,bool)": "infinite",
				"setBaseURI(string)": "infinite",
				"supportsInterface(bytes4)": "1360",
				"tokenURI(uint256)": "infinite",
				"transferOwnership(address)": "24532",
				"unpause()": "infinite",
				"uri(uint256)": "infinite"
			}
		},
		"methodIdentifiers": {
			"DEFAULT_ADMIN_ROLE()": "a217fddf",
			"MINTER_ROLE()": "d5391393",
			"PAUSER_ROLE()": "e63ab1e9",
			"balanceOf(address,uint256)": "00fdd58e",
			"balanceOfBatch(address[],uint256[])": "4e1273f4",
			"burn(address,uint256,uint256)": "f5298aca",
			"burnBatch(address,uint256[],uint256[])": "6b20c454",
			"getRoleAdmin(bytes32)": "248a9ca3",
			"getRoleMember(bytes32,uint256)": "9010d07c",
			"getRoleMemberCount(bytes32)": "ca15c873",
			"grantRole(bytes32,address)": "2f2ff15d",
			"hasRole(bytes32,address)": "91d14854",
			"isApprovedForAll(address,address)": "e985e9c5",
			"mint(uint256,string,bytes)": "785cc997",
			"mintBatch(address,uint256[],uint256[],string[],bytes)": "b9571e84",
			"owner()": "8da5cb5b",
			"pause()": "8456cb59",
			"paused()": "5c975abb",
			"renounceOwnership()": "715018a6",
			"renounceRole(bytes32,address)": "36568abe",
			"revokeRole(bytes32,address)": "d547741f",
			"safeBatchTransferFrom(address,address,uint256[],uint256[],bytes)": "2eb2c2d6",
			"safeTransferFrom(address,address,uint256,uint256,bytes)": "f242432a",
			"setApprovalForAll(address,bool)": "a22cb465",
			"setBaseURI(string)": "55f804b3",
			"supportsInterface(bytes4)": "01ffc9a7",
			"tokenURI(uint256)": "c87b56dd",
			"transferOwnership(address)": "f2fde38b",
			"unpause()": "3f4ba83a",
			"uri(uint256)": "0e89341c"
		}
	},
	"abi": [
		{
			"inputs": [
				{
					"internalType": "string",
					"name": "uri",
					"type": "string"
				}
			],
			"stateMutability": "nonpayable",
			"type": "constructor"
		},
		{
			"anonymous": false,
			"inputs": [
				{
					"indexed": true,
					"internalType": "address",
					"name": "account",
					"type": "address"
				},
				{
					"indexed": true,
					"internalType": "address",
					"name": "operator",
					"type": "address"
				},
				{
					"indexed": false,
					"internalType": "bool",
					"name": "approved",
					"type": "bool"
				}
			],
			"name": "ApprovalForAll",
			"type": "event"
		},
		{
			"anonymous": false,
			"inputs": [
				{
					"indexed": true,
					"internalType": "address",
					"name": "previousOwner",
					"type": "address"
				},
				{
					"indexed": true,
					"internalType": "address",
					"name": "newOwner",
					"type": "address"
				}
			],
			"name": "OwnershipTransferred",
			"type": "event"
		},
		{
			"anonymous": false,
			"inputs": [
				{
					"indexed": false,
					"internalType": "address",
					"name": "account",
					"type": "address"
				}
			],
			"name": "Paused",
			"type": "event"
		},
		{
			"anonymous": false,
			"inputs": [
				{
					"indexed": true,
					"internalType": "bytes32",
					"name": "role",
					"type": "bytes32"
				},
				{
					"indexed": true,
					"internalType": "bytes32",
					"name": "previousAdminRole",
					"type": "bytes32"
				},
				{
					"indexed": true,
					"internalType": "bytes32",
					"name": "newAdminRole",
					"type": "bytes32"
				}
			],
			"name": "RoleAdminChanged",
			"type": "event"
		},
		{
			"anonymous": false,
			"inputs": [
				{
					"indexed": true,
					"internalType": "bytes32",
					"name": "role",
					"type": "bytes32"
				},
				{
					"indexed": true,
					"internalType": "address",
					"name": "account",
					"type": "address"
				},
				{
					"indexed": true,
					"internalType": "address",
					"name": "sender",
					"type": "address"
				}
			],
			"name": "RoleGranted",
			"type": "event"
		},
		{
			"anonymous": false,
			"inputs": [
				{
					"indexed": true,
					"internalType": "bytes32",
					"name": "role",
					"type": "bytes32"
				},
				{
					"indexed": true,
					"internalType": "address",
					"name": "account",
					"type": "address"
				},
				{
					"indexed": true,
					"internalType": "address",
					"name": "sender",
					"type": "address"
				}
			],
			"name": "RoleRevoked",
			"type": "event"
		},
		{
			"anonymous": false,
			"inputs": [
				{
					"indexed": true,
					"internalType": "address",
					"name": "operator",
					"type": "address"
				},
				{
					"indexed": true,
					"internalType": "address",
					"name": "from",
					"type": "address"
				},
				{
					"indexed": true,
					"internalType": "address",
					"name": "to",
					"type": "address"
				},
				{
					"indexed": false,
					"internalType": "uint256[]",
					"name": "ids",
					"type": "uint256[]"
				},
				{
					"indexed": false,
					"internalType": "uint256[]",
					"name": "values",
					"type": "uint256[]"
				}
			],
			"name": "TransferBatch",
			"type": "event"
		},
		{
			"anonymous": false,
			"inputs": [
				{
					"indexed": true,
					"internalType": "address",
					"name": "operator",
					"type": "address"
				},
				{
					"indexed": true,
					"internalType": "address",
					"name": "from",
					"type": "address"
				},
				{
					"indexed": true,
					"internalType": "address",
					"name": "to",
					"type": "address"
				},
				{
					"indexed": false,
					"internalType": "uint256",
					"name": "id",
					"type": "uint256"
				},
				{
					"indexed": false,
					"internalType": "uint256",
					"name": "value",
					"type": "uint256"
				}
			],
			"name": "TransferSingle",
			"type": "event"
		},
		{
			"anonymous": false,
			"inputs": [
				{
					"indexed": false,
					"internalType": "string",
					"name": "value",
					"type": "string"
				},
				{
					"indexed": true,
					"internalType": "uint256",
					"name": "id",
					"type": "uint256"
				}
			],
			"name": "URI",
			"type": "event"
		},
		{
			"anonymous": false,
			"inputs": [
				{
					"indexed": false,
					"internalType": "address",
					"name": "account",
					"type": "address"
				}
			],
			"name": "Unpaused",
			"type": "event"
		},
		{
			"inputs": [],
			"name": "DEFAULT_ADMIN_ROLE",
			"outputs": [
				{
					"internalType": "bytes32",
					"name": "",
					"type": "bytes32"
				}
			],
			"stateMutability": "view",
			"type": "function"
		},
		{
			"inputs": [],
			"name": "MINTER_ROLE",
			"outputs": [
				{
					"internalType": "bytes32",
					"name": "",
					"type": "bytes32"
				}
			],
			"stateMutability": "view",
			"type": "function"
		},
		{
			"inputs": [],
			"name": "PAUSER_ROLE",
			"outputs": [
				{
					"internalType": "bytes32",
					"name": "",
					"type": "bytes32"
				}
			],
			"stateMutability": "view",
			"type": "function"
		},
		{
			"inputs": [
				{
					"internalType": "address",
					"name": "account",
					"type": "address"
				},
				{
					"internalType": "uint256",
					"name": "id",
					"type": "uint256"
				}
			],
			"name": "balanceOf",
			"outputs": [
				{
					"internalType": "uint256",
					"name": "",
					"type": "uint256"
				}
			],
			"stateMutability": "view",
			"type": "function"
		},
		{
			"inputs": [
				{
					"internalType": "address[]",
					"name": "accounts",
					"type": "address[]"
				},
				{
					"internalType": "uint256[]",
					"name": "ids",
					"type": "uint256[]"
				}
			],
			"name": "balanceOfBatch",
			"outputs": [
				{
					"internalType": "uint256[]",
					"name": "",
					"type": "uint256[]"
				}
			],
			"stateMutability": "view",
			"type": "function"
		},
		{
			"inputs": [
				{
					"internalType": "address",
					"name": "account",
					"type": "address"
				},
				{
					"internalType": "uint256",
					"name": "id",
					"type": "uint256"
				},
				{
					"internalType": "uint256",
					"name": "value",
					"type": "uint256"
				}
			],
			"name": "burn",
			"outputs": [],
			"stateMutability": "nonpayable",
			"type": "function"
		},
		{
			"inputs": [
				{
					"internalType": "address",
					"name": "account",
					"type": "address"
				},
				{
					"internalType": "uint256[]",
					"name": "ids",
					"type": "uint256[]"
				},
				{
					"internalType": "uint256[]",
					"name": "values",
					"type": "uint256[]"
				}
			],
			"name": "burnBatch",
			"outputs": [],
			"stateMutability": "nonpayable",
			"type": "function"
		},
		{
			"inputs": [
				{
					"internalType": "bytes32",
					"name": "role",
					"type": "bytes32"
				}
			],
			"name": "getRoleAdmin",
			"outputs": [
				{
					"internalType": "bytes32",
					"name": "",
					"type": "bytes32"
				}
			],
			"stateMutability": "view",
			"type": "function"
		},
		{
			"inputs": [
				{
					"internalType": "bytes32",
					"name": "role",
					"type": "bytes32"
				},
				{
					"internalType": "uint256",
					"name": "index",
					"type": "uint256"
				}
			],
			"name": "getRoleMember",
			"outputs": [
				{
					"internalType": "address",
					"name": "",
					"type": "address"
				}
			],
			"stateMutability": "view",
			"type": "function"
		},
		{
			"inputs": [
				{
					"internalType": "bytes32",
					"name": "role",
					"type": "bytes32"
				}
			],
			"name": "getRoleMemberCount",
			"outputs": [
				{
					"internalType": "uint256",
					"name": "",
					"type": "uint256"
				}
			],
			"stateMutability": "view",
			"type": "function"
		},
		{
			"inputs": [
				{
					"internalType": "bytes32",
					"name": "role",
					"type": "bytes32"
				},
				{
					"internalType": "address",
					"name": "account",
					"type": "address"
				}
			],
			"name": "grantRole",
			"outputs": [],
			"stateMutability": "nonpayable",
			"type": "function"
		},
		{
			"inputs": [
				{
					"internalType": "bytes32",
					"name": "role",
					"type": "bytes32"
				},
				{
					"internalType": "address",
					"name": "account",
					"type": "address"
				}
			],
			"name": "hasRole",
			"outputs": [
				{
					"internalType": "bool",
					"name": "",
					"type": "bool"
				}
			],
			"stateMutability": "view",
			"type": "function"
		},
		{
			"inputs": [
				{
					"internalType": "address",
					"name": "account",
					"type": "address"
				},
				{
					"internalType": "address",
					"name": "operator",
					"type": "address"
				}
			],
			"name": "isApprovedForAll",
			"outputs": [
				{
					"internalType": "bool",
					"name": "",
					"type": "bool"
				}
			],
			"stateMutability": "view",
			"type": "function"
		},
		{
			"inputs": [
				{
					"internalType": "uint256",
					"name": "amount",
					"type": "uint256"
				},
				{
					"internalType": "string",
					"name": "_tokenURI",
					"type": "string"
				},
				{
					"internalType": "bytes",
					"name": "data",
					"type": "bytes"
				}
			],
			"name": "mint",
			"outputs": [],
			"stateMutability": "nonpayable",
			"type": "function"
		},
		{
			"inputs": [
				{
					"internalType": "address",
					"name": "to",
					"type": "address"
				},
				{
					"internalType": "uint256[]",
					"name": "ids",
					"type": "uint256[]"
				},
				{
					"internalType": "uint256[]",
					"name": "amounts",
					"type": "uint256[]"
				},
				{
					"internalType": "string[]",
					"name": "_tokenID",
					"type": "string[]"
				},
				{
					"internalType": "bytes",
					"name": "data",
					"type": "bytes"
				}
			],
			"name": "mintBatch",
			"outputs": [],
			"stateMutability": "nonpayable",
			"type": "function"
		},
		{
			"inputs": [],
			"name": "owner",
			"outputs": [
				{
					"internalType": "address",
					"name": "",
					"type": "address"
				}
			],
			"stateMutability": "view",
			"type": "function"
		},
		{
			"inputs": [],
			"name": "pause",
			"outputs": [],
			"stateMutability": "nonpayable",
			"type": "function"
		},
		{
			"inputs": [],
			"name": "paused",
			"outputs": [
				{
					"internalType": "bool",
					"name": "",
					"type": "bool"
				}
			],
			"stateMutability": "view",
			"type": "function"
		},
		{
			"inputs": [],
			"name": "renounceOwnership",
			"outputs": [],
			"stateMutability": "nonpayable",
			"type": "function"
		},
		{
			"inputs": [
				{
					"internalType": "bytes32",
					"name": "role",
					"type": "bytes32"
				},
				{
					"internalType": "address",
					"name": "account",
					"type": "address"
				}
			],
			"name": "renounceRole",
			"outputs": [],
			"stateMutability": "nonpayable",
			"type": "function"
		},
		{
			"inputs": [
				{
					"internalType": "bytes32",
					"name": "role",
					"type": "bytes32"
				},
				{
					"internalType": "address",
					"name": "account",
					"type": "address"
				}
			],
			"name": "revokeRole",
			"outputs": [],
			"stateMutability": "nonpayable",
			"type": "function"
		},
		{
			"inputs": [
				{
					"internalType": "address",
					"name": "from",
					"type": "address"
				},
				{
					"internalType": "address",
					"name": "to",
					"type": "address"
				},
				{
					"internalType": "uint256[]",
					"name": "ids",
					"type": "uint256[]"
				},
				{
					"internalType": "uint256[]",
					"name": "amounts",
					"type": "uint256[]"
				},
				{
					"internalType": "bytes",
					"name": "data",
					"type": "bytes"
				}
			],
			"name": "safeBatchTransferFrom",
			"outputs": [],
			"stateMutability": "nonpayable",
			"type": "function"
		},
		{
			"inputs": [
				{
					"internalType": "address",
					"name": "from",
					"type": "address"
				},
				{
					"internalType": "address",
					"name": "to",
					"type": "address"
				},
				{
					"internalType": "uint256",
					"name": "id",
					"type": "uint256"
				},
				{
					"internalType": "uint256",
					"name": "amount",
					"type": "uint256"
				},
				{
					"internalType": "bytes",
					"name": "data",
					"type": "bytes"
				}
			],
			"name": "safeTransferFrom",
			"outputs": [],
			"stateMutability": "nonpayable",
			"type": "function"
		},
		{
			"inputs": [
				{
					"internalType": "address",
					"name": "operator",
					"type": "address"
				},
				{
					"internalType": "bool",
					"name": "approved",
					"type": "bool"
				}
			],
			"name": "setApprovalForAll",
			"outputs": [],
			"stateMutability": "nonpayable",
			"type": "function"
		},
		{
			"inputs": [
				{
					"internalType": "string",
					"name": "newuri",
					"type": "string"
				}
			],
			"name": "setBaseURI",
			"outputs": [],
			"stateMutability": "nonpayable",
			"type": "function"
		},
		{
			"inputs": [
				{
					"internalType": "bytes4",
					"name": "interfaceId",
					"type": "bytes4"
				}
			],
			"name": "supportsInterface",
			"outputs": [
				{
					"internalType": "bool",
					"name": "",
					"type": "bool"
				}
			],
			"stateMutability": "view",
			"type": "function"
		},
		{
			"inputs": [
				{
					"internalType": "uint256",
					"name": "tokenId",
					"type": "uint256"
				}
			],
			"name": "tokenURI",
			"outputs": [
				{
					"internalType": "string",
					"name": "",
					"type": "string"
				}
			],
			"stateMutability": "view",
			"type": "function"
		},
		{
			"inputs": [
				{
					"internalType": "address",
					"name": "newOwner",
					"type": "address"
				}
			],
			"name": "transferOwnership",
			"outputs": [],
			"stateMutability": "nonpayable",
			"type": "function"
		},
		{
			"inputs": [],
			"name": "unpause",
			"outputs": [],
			"stateMutability": "nonpayable",
			"type": "function"
		},
		{
			"inputs": [
				{
					"internalType": "uint256",
					"name": "",
					"type": "uint256"
				}
			],
			"name": "uri",
			"outputs": [
				{
					"internalType": "string",
					"name": "",
					"type": "string"
				}
			],
			"stateMutability": "view",
			"type": "function"
		}
	]
}